{
  "contractName": "CrudeToken",
  "abi": [
    {
      "inputs": [
        {
          "internalType": "string",
          "name": "name",
          "type": "string"
        },
        {
          "internalType": "string",
          "name": "symbol",
          "type": "string"
        }
      ],
      "stateMutability": "nonpayable",
      "type": "constructor"
    },
    {
      "anonymous": false,
      "inputs": [
        {
          "indexed": true,
          "internalType": "address",
          "name": "owner",
          "type": "address"
        },
        {
          "indexed": true,
          "internalType": "address",
          "name": "approved",
          "type": "address"
        },
        {
          "indexed": true,
          "internalType": "uint256",
          "name": "tokenId",
          "type": "uint256"
        }
      ],
      "name": "Approval",
      "type": "event"
    },
    {
      "anonymous": false,
      "inputs": [
        {
          "indexed": true,
          "internalType": "address",
          "name": "owner",
          "type": "address"
        },
        {
          "indexed": true,
          "internalType": "address",
          "name": "operator",
          "type": "address"
        },
        {
          "indexed": false,
          "internalType": "bool",
          "name": "approved",
          "type": "bool"
        }
      ],
      "name": "ApprovalForAll",
      "type": "event"
    },
    {
      "anonymous": false,
      "inputs": [
        {
          "indexed": true,
          "internalType": "address",
          "name": "previousOwner",
          "type": "address"
        },
        {
          "indexed": true,
          "internalType": "address",
          "name": "newOwner",
          "type": "address"
        }
      ],
      "name": "OwnershipTransferred",
      "type": "event"
    },
    {
      "anonymous": false,
      "inputs": [
        {
          "indexed": true,
          "internalType": "address",
          "name": "from",
          "type": "address"
        },
        {
          "indexed": true,
          "internalType": "address",
          "name": "to",
          "type": "address"
        },
        {
          "indexed": true,
          "internalType": "uint256",
          "name": "tokenId",
          "type": "uint256"
        }
      ],
      "name": "Transfer",
      "type": "event"
    },
    {
      "inputs": [],
      "name": "BASE_RESTING_TIME",
      "outputs": [
        {
          "internalType": "uint256",
          "name": "",
          "type": "uint256"
        }
      ],
      "stateMutability": "view",
      "type": "function",
      "constant": true
    },
    {
      "inputs": [],
      "name": "LVL_1_XP",
      "outputs": [
        {
          "internalType": "uint16",
          "name": "",
          "type": "uint16"
        }
      ],
      "stateMutability": "view",
      "type": "function",
      "constant": true
    },
    {
      "inputs": [],
      "name": "LVL_2_XP",
      "outputs": [
        {
          "internalType": "uint16",
          "name": "",
          "type": "uint16"
        }
      ],
      "stateMutability": "view",
      "type": "function",
      "constant": true
    },
    {
      "inputs": [],
      "name": "LVL_3_XP",
      "outputs": [
        {
          "internalType": "uint16",
          "name": "",
          "type": "uint16"
        }
      ],
      "stateMutability": "view",
      "type": "function",
      "constant": true
    },
    {
      "inputs": [],
      "name": "LVL_4_XP",
      "outputs": [
        {
          "internalType": "uint16",
          "name": "",
          "type": "uint16"
        }
      ],
      "stateMutability": "view",
      "type": "function",
      "constant": true
    },
    {
      "inputs": [],
      "name": "LVL_5_XP",
      "outputs": [
        {
          "internalType": "uint16",
          "name": "",
          "type": "uint16"
        }
      ],
      "stateMutability": "view",
      "type": "function",
      "constant": true
    },
    {
      "inputs": [],
      "name": "MAX_ENERGY",
      "outputs": [
        {
          "internalType": "uint16",
          "name": "",
          "type": "uint16"
        }
      ],
      "stateMutability": "view",
      "type": "function",
      "constant": true
    },
    {
      "inputs": [
        {
          "internalType": "address",
          "name": "to",
          "type": "address"
        },
        {
          "internalType": "uint256",
          "name": "tokenId",
          "type": "uint256"
        }
      ],
      "name": "approve",
      "outputs": [],
      "stateMutability": "nonpayable",
      "type": "function"
    },
    {
      "inputs": [
        {
          "internalType": "address",
          "name": "owner",
          "type": "address"
        }
      ],
      "name": "balanceOf",
      "outputs": [
        {
          "internalType": "uint256",
          "name": "",
          "type": "uint256"
        }
      ],
      "stateMutability": "view",
      "type": "function",
      "constant": true
    },
    {
      "inputs": [
        {
          "internalType": "uint256",
          "name": "tokenId",
          "type": "uint256"
        }
      ],
      "name": "getApproved",
      "outputs": [
        {
          "internalType": "address",
          "name": "",
          "type": "address"
        }
      ],
      "stateMutability": "view",
      "type": "function",
      "constant": true
    },
    {
      "inputs": [
        {
          "internalType": "address",
          "name": "owner",
          "type": "address"
        },
        {
          "internalType": "address",
          "name": "operator",
          "type": "address"
        }
      ],
      "name": "isApprovedForAll",
      "outputs": [
        {
          "internalType": "bool",
          "name": "",
          "type": "bool"
        }
      ],
      "stateMutability": "view",
      "type": "function",
      "constant": true
    },
    {
      "inputs": [],
      "name": "name",
      "outputs": [
        {
          "internalType": "string",
          "name": "",
          "type": "string"
        }
      ],
      "stateMutability": "view",
      "type": "function",
      "constant": true
    },
    {
      "inputs": [],
      "name": "owner",
      "outputs": [
        {
          "internalType": "address",
          "name": "",
          "type": "address"
        }
      ],
      "stateMutability": "view",
      "type": "function",
      "constant": true
    },
    {
      "inputs": [
        {
          "internalType": "uint256",
          "name": "tokenId",
          "type": "uint256"
        }
      ],
      "name": "ownerOf",
      "outputs": [
        {
          "internalType": "address",
          "name": "",
          "type": "address"
        }
      ],
      "stateMutability": "view",
      "type": "function",
      "constant": true
    },
    {
      "inputs": [],
      "name": "renounceOwnership",
      "outputs": [],
      "stateMutability": "nonpayable",
      "type": "function"
    },
    {
      "inputs": [
        {
          "internalType": "address",
          "name": "from",
          "type": "address"
        },
        {
          "internalType": "address",
          "name": "to",
          "type": "address"
        },
        {
          "internalType": "uint256",
          "name": "tokenId",
          "type": "uint256"
        }
      ],
      "name": "safeTransferFrom",
      "outputs": [],
      "stateMutability": "nonpayable",
      "type": "function"
    },
    {
      "inputs": [
        {
          "internalType": "address",
          "name": "from",
          "type": "address"
        },
        {
          "internalType": "address",
          "name": "to",
          "type": "address"
        },
        {
          "internalType": "uint256",
          "name": "tokenId",
          "type": "uint256"
        },
        {
          "internalType": "bytes",
          "name": "_data",
          "type": "bytes"
        }
      ],
      "name": "safeTransferFrom",
      "outputs": [],
      "stateMutability": "nonpayable",
      "type": "function"
    },
    {
      "inputs": [
        {
          "internalType": "address",
          "name": "operator",
          "type": "address"
        },
        {
          "internalType": "bool",
          "name": "approved",
          "type": "bool"
        }
      ],
      "name": "setApprovalForAll",
      "outputs": [],
      "stateMutability": "nonpayable",
      "type": "function"
    },
    {
      "inputs": [
        {
          "internalType": "bytes4",
          "name": "interfaceId",
          "type": "bytes4"
        }
      ],
      "name": "supportsInterface",
      "outputs": [
        {
          "internalType": "bool",
          "name": "",
          "type": "bool"
        }
      ],
      "stateMutability": "view",
      "type": "function",
      "constant": true
    },
    {
      "inputs": [],
      "name": "symbol",
      "outputs": [
        {
          "internalType": "string",
          "name": "",
          "type": "string"
        }
      ],
      "stateMutability": "view",
      "type": "function",
      "constant": true
    },
    {
      "inputs": [
        {
          "internalType": "uint256",
          "name": "tokenId",
          "type": "uint256"
        }
      ],
      "name": "tokenURI",
      "outputs": [
        {
          "internalType": "string",
          "name": "",
          "type": "string"
        }
      ],
      "stateMutability": "view",
      "type": "function",
      "constant": true
    },
    {
      "inputs": [
        {
          "internalType": "address",
          "name": "from",
          "type": "address"
        },
        {
          "internalType": "address",
          "name": "to",
          "type": "address"
        },
        {
          "internalType": "uint256",
          "name": "tokenId",
          "type": "uint256"
        }
      ],
      "name": "transferFrom",
      "outputs": [],
      "stateMutability": "nonpayable",
      "type": "function"
    },
    {
      "inputs": [
        {
          "internalType": "address",
          "name": "newOwner",
          "type": "address"
        }
      ],
      "name": "transferOwnership",
      "outputs": [],
      "stateMutability": "nonpayable",
      "type": "function"
    },
    {
      "inputs": [
        {
          "internalType": "string",
          "name": "tribeName",
          "type": "string"
        }
      ],
      "name": "getTribeDetails",
      "outputs": [
        {
          "components": [
            {
              "internalType": "uint16",
              "name": "hp",
              "type": "uint16"
            },
            {
              "internalType": "uint16",
              "name": "str",
              "type": "uint16"
            },
            {
              "internalType": "uint16",
              "name": "mp",
              "type": "uint16"
            },
            {
              "internalType": "uint16",
              "name": "ag",
              "type": "uint16"
            },
            {
              "internalType": "uint16",
              "name": "pDef",
              "type": "uint16"
            },
            {
              "internalType": "uint16",
              "name": "mDef",
              "type": "uint16"
            },
            {
              "internalType": "uint256",
              "name": "restingTime",
              "type": "uint256"
            }
          ],
          "internalType": "struct CrudeToken.CrudeStats",
          "name": "",
          "type": "tuple"
        }
      ],
      "stateMutability": "view",
      "type": "function",
      "constant": true
    },
    {
      "inputs": [
        {
          "internalType": "uint256",
          "name": "tokenId",
          "type": "uint256"
        }
      ],
      "name": "getTokenDetails",
      "outputs": [
        {
          "components": [
            {
              "internalType": "uint8",
              "name": "level",
              "type": "uint8"
            },
            {
              "internalType": "uint16",
              "name": "xp",
              "type": "uint16"
            },
            {
              "internalType": "string",
              "name": "tribe",
              "type": "string"
            },
            {
              "components": [
                {
                  "internalType": "uint16",
                  "name": "hp",
                  "type": "uint16"
                },
                {
                  "internalType": "uint16",
                  "name": "str",
                  "type": "uint16"
                },
                {
                  "internalType": "uint16",
                  "name": "mp",
                  "type": "uint16"
                },
                {
                  "internalType": "uint16",
                  "name": "ag",
                  "type": "uint16"
                },
                {
                  "internalType": "uint16",
                  "name": "pDef",
                  "type": "uint16"
                },
                {
                  "internalType": "uint16",
                  "name": "mDef",
                  "type": "uint16"
                },
                {
                  "internalType": "uint256",
                  "name": "restingTime",
                  "type": "uint256"
                }
              ],
              "internalType": "struct CrudeToken.CrudeStats",
              "name": "stats",
              "type": "tuple"
            },
            {
              "internalType": "uint8",
              "name": "energy",
              "type": "uint8"
            },
            {
              "internalType": "uint256",
              "name": "restingEndTimestamp",
              "type": "uint256"
            }
          ],
          "internalType": "struct CrudeToken.Crude",
          "name": "",
          "type": "tuple"
        }
      ],
      "stateMutability": "view",
      "type": "function",
      "constant": true
    },
    {
      "inputs": [
        {
          "internalType": "string",
          "name": "tribeName",
          "type": "string"
        },
        {
          "internalType": "uint8",
          "name": "hp",
          "type": "uint8"
        },
        {
          "internalType": "uint8",
          "name": "str",
          "type": "uint8"
        },
        {
          "internalType": "uint8",
          "name": "mp",
          "type": "uint8"
        },
        {
          "internalType": "uint8",
          "name": "ag",
          "type": "uint8"
        },
        {
          "internalType": "uint8",
          "name": "pDef",
          "type": "uint8"
        },
        {
          "internalType": "uint8",
          "name": "mDef",
          "type": "uint8"
        }
      ],
      "name": "addTribe",
      "outputs": [],
      "stateMutability": "nonpayable",
      "type": "function"
    },
    {
      "inputs": [
        {
          "internalType": "string",
          "name": "_tribe",
          "type": "string"
        }
      ],
      "name": "mint",
      "outputs": [],
      "stateMutability": "nonpayable",
      "type": "function"
    },
    {
      "inputs": [
        {
          "internalType": "uint256",
          "name": "tokenId",
          "type": "uint256"
        },
        {
          "internalType": "uint16",
          "name": "xpPoints",
          "type": "uint16"
        }
      ],
      "name": "addXP",
      "outputs": [],
      "stateMutability": "nonpayable",
      "type": "function"
    },
    {
      "inputs": [
        {
          "internalType": "uint256",
          "name": "tokenId",
          "type": "uint256"
        },
        {
          "internalType": "uint8",
          "name": "energyToRestore",
          "type": "uint8"
        }
      ],
      "name": "feed",
      "outputs": [],
      "stateMutability": "nonpayable",
      "type": "function"
    },
    {
      "inputs": [
        {
          "internalType": "uint256",
          "name": "tokenId",
          "type": "uint256"
        },
        {
          "internalType": "uint8",
          "name": "energyToLose",
          "type": "uint8"
        }
      ],
      "name": "exhaust",
      "outputs": [],
      "stateMutability": "nonpayable",
      "type": "function"
    }
  ],
  "bytecode": "0x608060405260006007553480156200001657600080fd5b506040516200480c3803806200480c83398181016040528101906200003c91906200028a565b818181600090805190602001906200005692919062000168565b5080600190805190602001906200006f92919062000168565b50505062000092620000866200009a60201b60201c565b620000a260201b60201c565b50506200042e565b600033905090565b6000600660009054906101000a900473ffffffffffffffffffffffffffffffffffffffff16905081600660006101000a81548173ffffffffffffffffffffffffffffffffffffffff021916908373ffffffffffffffffffffffffffffffffffffffff1602179055508173ffffffffffffffffffffffffffffffffffffffff168173ffffffffffffffffffffffffffffffffffffffff167f8be0079c531659141344cd1fd0a4f28419497f9722a3daafe3b4186f6b6457e060405160405180910390a35050565b82805462000176906200039a565b90600052602060002090601f0160209004810192826200019a5760008555620001e6565b82601f10620001b557805160ff1916838001178555620001e6565b82800160010185558215620001e6579182015b82811115620001e5578251825591602001919060010190620001c8565b5b509050620001f59190620001f9565b5090565b5b8082111562000214576000816000905550600101620001fa565b5090565b60006200022f620002298462000331565b620002fd565b9050828152602081018484840111156200024857600080fd5b6200025584828562000364565b509392505050565b600082601f8301126200026f57600080fd5b81516200028184826020860162000218565b91505092915050565b600080604083850312156200029e57600080fd5b600083015167ffffffffffffffff811115620002b957600080fd5b620002c7858286016200025d565b925050602083015167ffffffffffffffff811115620002e557600080fd5b620002f3858286016200025d565b9150509250929050565b6000604051905081810181811067ffffffffffffffff82111715620003275762000326620003ff565b5b8060405250919050565b600067ffffffffffffffff8211156200034f576200034e620003ff565b5b601f19601f8301169050602081019050919050565b60005b838110156200038457808201518184015260208101905062000367565b8381111562000394576000848401525b50505050565b60006002820490506001821680620003b357607f821691505b60208210811415620003ca57620003c9620003d0565b5b50919050565b7f4e487b7100000000000000000000000000000000000000000000000000000000600052602260045260246000fd5b7f4e487b7100000000000000000000000000000000000000000000000000000000600052604160045260246000fd5b6143ce806200043e6000396000f3fe608060405234801561001057600080fd5b50600436106101da5760003560e01c80638da5cb5b11610104578063c1e03728116100a2578063e985e9c511610071578063e985e9c514610541578063f2fde38b14610571578063f4cec2ab1461058d578063fd5070e7146105ab576101da565b8063c1e03728146104a9578063c87b56dd146104d9578063d85d3d2714610509578063e1a5bd8a14610525576101da565b8063a22cb465116100de578063a22cb46514610423578063a2e28e741461043f578063a9fb959f1461045d578063b88d4fde1461048d576101da565b80638da5cb5b146103c9578063936ed848146103e757806395d89b4114610405576101da565b806342842e0e1161017c5780636352211e1161014b5780636352211e1461034357806370a0823114610373578063715018a6146103a357806382927fe0146103ad576101da565b806342842e0e146102cf57806346ae59bc146102eb578063495f5a96146103095780634cd11a1e14610325576101da565b8063095ea7b3116101b8578063095ea7b31461025d57806310352ba1146102795780631fdebc441461029557806323b872dd146102b3576101da565b806301ffc9a7146101df57806306fdde031461020f578063081812fc1461022d575b600080fd5b6101f960048036038101906101f49190613030565b6105c9565b6040516102069190613bb1565b60405180910390f35b6102176106ab565b6040516102249190613bcc565b60405180910390f35b61024760048036038101906102429190613179565b61073d565b6040516102549190613b4a565b60405180910390f35b61027760048036038101906102729190612ff4565b6107c2565b005b610293600480360381019061028e91906130c3565b6108da565b005b61029d610afc565b6040516102aa9190613e4b565b60405180910390f35b6102cd60048036038101906102c89190612eee565b610b01565b005b6102e960048036038101906102e49190612eee565b610b61565b005b6102f3610b81565b6040516103009190613e4b565b60405180910390f35b610323600480360381019061031e91906131a2565b610b87565b005b61032d610f48565b60405161033a9190613e4b565b60405180910390f35b61035d60048036038101906103589190613179565b610f4e565b60405161036a9190613b4a565b60405180910390f35b61038d60048036038101906103889190612e89565b611000565b60405161039a9190613e66565b60405180910390f35b6103ab6110b8565b005b6103c760048036038101906103c291906131de565b611140565b005b6103d16112b4565b6040516103de9190613b4a565b60405180910390f35b6103ef6112de565b6040516103fc9190613e4b565b60405180910390f35b61040d6112e4565b60405161041a9190613bcc565b60405180910390f35b61043d60048036038101906104389190612fb8565b611376565b005b6104476114f7565b6040516104549190613e66565b60405180910390f35b61047760048036038101906104729190613082565b6114fe565b6040516104849190613e0e565b60405180910390f35b6104a760048036038101906104a29190612f3d565b611600565b005b6104c360048036038101906104be9190613179565b611662565b6040516104d09190613e29565b60405180910390f35b6104f360048036038101906104ee9190613179565b611863565b6040516105009190613bcc565b60405180910390f35b610523600480360381019061051e9190613082565b61190a565b005b61053f600480360381019061053a91906131de565b611c65565b005b61055b60048036038101906105569190612eb2565b611e49565b6040516105689190613bb1565b60405180910390f35b61058b60048036038101906105869190612e89565b611edd565b005b610595611fd5565b6040516105a29190613e4b565b60405180910390f35b6105b3611fdb565b6040516105c09190613e4b565b60405180910390f35b60007f80ac58cd000000000000000000000000000000000000000000000000000000007bffffffffffffffffffffffffffffffffffffffffffffffffffffffff1916827bffffffffffffffffffffffffffffffffffffffffffffffffffffffff1916148061069457507f5b5e139f000000000000000000000000000000000000000000000000000000007bffffffffffffffffffffffffffffffffffffffffffffffffffffffff1916827bffffffffffffffffffffffffffffffffffffffffffffffffffffffff1916145b806106a457506106a382611fe0565b5b9050919050565b6060600080546106ba90614195565b80601f01602080910402602001604051908101604052809291908181526020018280546106e690614195565b80156107335780601f1061070857610100808354040283529160200191610733565b820191906000526020600020905b81548152906001019060200180831161071657829003601f168201915b5050505050905090565b60006107488261204a565b610787576040517f08c379a000000000000000000000000000000000000000000000000000000000815260040161077e90613d4e565b60405180910390fd5b6004600083815260200190815260200160002060009054906101000a900473ffffffffffffffffffffffffffffffffffffffff169050919050565b60006107cd82610f4e565b90508073ffffffffffffffffffffffffffffffffffffffff168373ffffffffffffffffffffffffffffffffffffffff16141561083e576040517f08c379a000000000000000000000000000000000000000000000000000000000815260040161083590613dce565b60405180910390fd5b8073ffffffffffffffffffffffffffffffffffffffff1661085d6120b6565b73ffffffffffffffffffffffffffffffffffffffff16148061088c575061088b816108866120b6565b611e49565b5b6108cb576040517f08c379a00000000000000000000000000000000000000000000000000000000081526004016108c290613cce565b60405180910390fd5b6108d583836120be565b505050565b6108e26120b6565b73ffffffffffffffffffffffffffffffffffffffff166109006112b4565b73ffffffffffffffffffffffffffffffffffffffff1614610956576040517f08c379a000000000000000000000000000000000000000000000000000000000815260040161094d90613d6e565b60405180910390fd5b60006008886040516109689190613b0f565b908152602001604051809103902060000160009054906101000a900461ffff1661ffff161461099657600080fd5b6040518060e001604052808760ff1661ffff1681526020018660ff1661ffff1681526020018560ff1661ffff1681526020018460ff1661ffff1681526020018360ff1661ffff1681526020018260ff1661ffff16815260200162015180815250600888604051610a069190613b0f565b908152602001604051809103902060008201518160000160006101000a81548161ffff021916908361ffff16021790555060208201518160000160026101000a81548161ffff021916908361ffff16021790555060408201518160000160046101000a81548161ffff021916908361ffff16021790555060608201518160000160066101000a81548161ffff021916908361ffff16021790555060808201518160000160086101000a81548161ffff021916908361ffff16021790555060a082015181600001600a6101000a81548161ffff021916908361ffff16021790555060c0820151816001015590505050505050505050565b606481565b610b12610b0c6120b6565b82612177565b610b51576040517f08c379a0000000000000000000000000000000000000000000000000000000008152600401610b4890613dee565b60405180910390fd5b610b5c838383612255565b505050565b610b7c83838360405180602001604052806000815250611600565b505050565b6105dc81565b610b8f6120b6565b73ffffffffffffffffffffffffffffffffffffffff16610bad6112b4565b73ffffffffffffffffffffffffffffffffffffffff1614610c03576040517f08c379a0000000000000000000000000000000000000000000000000000000008152600401610bfa90613d6e565b60405180910390fd5b60008161ffff1611610c1457600080fd5b60006009600084815260200190815260200160002060020160000160009054906101000a900461ffff1661ffff161415610c4d57600080fd5b610bb861ffff16816009600085815260200190815260200160002060000160019054906101000a900461ffff16610c849190613f66565b61ffff161115610c9357600080fd5b806009600084815260200190815260200160002060000160018282829054906101000a900461ffff16610cc69190613f66565b92506101000a81548161ffff021916908361ffff16021790555061012c61ffff166009600084815260200190815260200160002060000160019054906101000a900461ffff1661ffff16118015610d43575060026009600084815260200190815260200160002060000160009054906101000a900460ff1660ff16105b15610d795760026009600084815260200190815260200160002060000160006101000a81548160ff021916908360ff1602179055505b6102ee61ffff166009600084815260200190815260200160002060000160019054906101000a900461ffff1661ffff16118015610ddc575060036009600084815260200190815260200160002060000160009054906101000a900460ff1660ff16105b15610e125760036009600084815260200190815260200160002060000160006101000a81548160ff021916908360ff1602179055505b6105dc61ffff166009600084815260200190815260200160002060000160019054906101000a900461ffff1661ffff16118015610e75575060046009600084815260200190815260200160002060000160009054906101000a900460ff1660ff16105b15610eab5760046009600084815260200190815260200160002060000160006101000a81548160ff021916908360ff1602179055505b610bb861ffff166009600084815260200190815260200160002060000160019054906101000a900461ffff1661ffff16148015610f0e575060056009600084815260200190815260200160002060000160009054906101000a900460ff1660ff16105b15610f445760056009600084815260200190815260200160002060000160006101000a81548160ff021916908360ff1602179055505b5050565b6102ee81565b6000806002600084815260200190815260200160002060009054906101000a900473ffffffffffffffffffffffffffffffffffffffff169050600073ffffffffffffffffffffffffffffffffffffffff168173ffffffffffffffffffffffffffffffffffffffff161415610ff7576040517f08c379a0000000000000000000000000000000000000000000000000000000008152600401610fee90613d0e565b60405180910390fd5b80915050919050565b60008073ffffffffffffffffffffffffffffffffffffffff168273ffffffffffffffffffffffffffffffffffffffff161415611071576040517f08c379a000000000000000000000000000000000000000000000000000000000815260040161106890613cee565b60405180910390fd5b600360008373ffffffffffffffffffffffffffffffffffffffff1673ffffffffffffffffffffffffffffffffffffffff168152602001908152602001600020549050919050565b6110c06120b6565b73ffffffffffffffffffffffffffffffffffffffff166110de6112b4565b73ffffffffffffffffffffffffffffffffffffffff1614611134576040517f08c379a000000000000000000000000000000000000000000000000000000000815260040161112b90613d6e565b60405180910390fd5b61113e60006124b1565b565b6111486120b6565b73ffffffffffffffffffffffffffffffffffffffff166111666112b4565b73ffffffffffffffffffffffffffffffffffffffff16146111bc576040517f08c379a00000000000000000000000000000000000000000000000000000000081526004016111b390613d6e565b60405180910390fd5b816000600960008381526020019081526020016000206005015414611216576040517f08c379a000000000000000000000000000000000000000000000000000000000815260040161120d90613c8e565b60405180910390fd5b60008260ff161161122657600080fd5b6064826009600086815260200190815260200160002060040160009054906101000a900460ff166112579190613ff4565b60ff16111561126557600080fd5b816009600085815260200190815260200160002060040160008282829054906101000a900460ff166112979190613ff4565b92506101000a81548160ff021916908360ff160217905550505050565b6000600660009054906101000a900473ffffffffffffffffffffffffffffffffffffffff16905090565b610bb881565b6060600180546112f390614195565b80601f016020809104026020016040519081016040528092919081815260200182805461131f90614195565b801561136c5780601f106113415761010080835404028352916020019161136c565b820191906000526020600020905b81548152906001019060200180831161134f57829003601f168201915b5050505050905090565b61137e6120b6565b73ffffffffffffffffffffffffffffffffffffffff168273ffffffffffffffffffffffffffffffffffffffff1614156113ec576040517f08c379a00000000000000000000000000000000000000000000000000000000081526004016113e390613c6e565b60405180910390fd5b80600560006113f96120b6565b73ffffffffffffffffffffffffffffffffffffffff1673ffffffffffffffffffffffffffffffffffffffff16815260200190815260200160002060008473ffffffffffffffffffffffffffffffffffffffff1673ffffffffffffffffffffffffffffffffffffffff16815260200190815260200160002060006101000a81548160ff0219169083151502179055508173ffffffffffffffffffffffffffffffffffffffff166114a66120b6565b73ffffffffffffffffffffffffffffffffffffffff167f17307eab39ab6107e8899845ad3d59bd9653f200f220920489ca2b5937696c31836040516114eb9190613bb1565b60405180910390a35050565b6201518081565b611506612be8565b6008826040516115169190613b0f565b90815260200160405180910390206040518060e00160405290816000820160009054906101000a900461ffff1661ffff1661ffff1681526020016000820160029054906101000a900461ffff1661ffff1661ffff1681526020016000820160049054906101000a900461ffff1661ffff1661ffff1681526020016000820160069054906101000a900461ffff1661ffff1661ffff1681526020016000820160089054906101000a900461ffff1661ffff1661ffff16815260200160008201600a9054906101000a900461ffff1661ffff1661ffff1681526020016001820154815250509050919050565b61161161160b6120b6565b83612177565b611650576040517f08c379a000000000000000000000000000000000000000000000000000000000815260040161164790613dee565b60405180910390fd5b61165c84848484612577565b50505050565b61166a612c3d565b600960008381526020019081526020016000206040518060c00160405290816000820160009054906101000a900460ff1660ff1660ff1681526020016000820160019054906101000a900461ffff1661ffff1661ffff1681526020016001820180546116d590614195565b80601f016020809104026020016040519081016040528092919081815260200182805461170190614195565b801561174e5780601f106117235761010080835404028352916020019161174e565b820191906000526020600020905b81548152906001019060200180831161173157829003601f168201915b50505050508152602001600282016040518060e00160405290816000820160009054906101000a900461ffff1661ffff1661ffff1681526020016000820160029054906101000a900461ffff1661ffff1661ffff1681526020016000820160049054906101000a900461ffff1661ffff1661ffff1681526020016000820160069054906101000a900461ffff1661ffff1661ffff1681526020016000820160089054906101000a900461ffff1661ffff1661ffff16815260200160008201600a9054906101000a900461ffff1661ffff1661ffff16815260200160018201548152505081526020016004820160009054906101000a900460ff1660ff1660ff1681526020016005820154815250509050919050565b606061186e8261204a565b6118ad576040517f08c379a00000000000000000000000000000000000000000000000000000000081526004016118a490613dae565b60405180910390fd5b60006118b76125d3565b905060008151116118d75760405180602001604052806000815250611902565b806118e1846125ea565b6040516020016118f2929190613b26565b6040516020818303038152906040525b915050919050565b6119126120b6565b73ffffffffffffffffffffffffffffffffffffffff166119306112b4565b73ffffffffffffffffffffffffffffffffffffffff1614611986576040517f08c379a000000000000000000000000000000000000000000000000000000000815260040161197d90613d6e565b60405180910390fd5b6040518060c00160405280600060ff168152602001600061ffff1681526020018281526020016008836040516119bc9190613b0f565b90815260200160405180910390206040518060e00160405290816000820160009054906101000a900461ffff1661ffff1661ffff1681526020016000820160029054906101000a900461ffff1661ffff1661ffff1681526020016000820160049054906101000a900461ffff1661ffff1661ffff1681526020016000820160069054906101000a900461ffff1661ffff1661ffff1681526020016000820160089054906101000a900461ffff1661ffff1661ffff16815260200160008201600a9054906101000a900461ffff1661ffff1661ffff1681526020016001820154815250508152602001606460ff168152602001600081525060096000600754815260200190815260200160002060008201518160000160006101000a81548160ff021916908360ff16021790555060208201518160000160016101000a81548161ffff021916908361ffff1602179055506040820151816001019080519060200190611b28929190612c83565b5060608201518160020160008201518160000160006101000a81548161ffff021916908361ffff16021790555060208201518160000160026101000a81548161ffff021916908361ffff16021790555060408201518160000160046101000a81548161ffff021916908361ffff16021790555060608201518160000160066101000a81548161ffff021916908361ffff16021790555060808201518160000160086101000a81548161ffff021916908361ffff16021790555060a082015181600001600a6101000a81548161ffff021916908361ffff16021790555060c08201518160010155505060808201518160040160006101000a81548160ff021916908360ff16021790555060a08201518160050155905050611c4a33600754612797565b60076000815480929190611c5d906141c7565b919050555050565b611c6d6120b6565b73ffffffffffffffffffffffffffffffffffffffff16611c8b6112b4565b73ffffffffffffffffffffffffffffffffffffffff1614611ce1576040517f08c379a0000000000000000000000000000000000000000000000000000000008152600401611cd890613d6e565b60405180910390fd5b816000600960008381526020019081526020016000206005015414611d3b576040517f08c379a0000000000000000000000000000000000000000000000000000000008152600401611d3290613c8e565b60405180910390fd5b60008260ff1611611d4b57600080fd5b60006009600085815260200190815260200160002060040160009054906101000a900460ff1683611d7c9190614090565b60ff161015611df95760006009600085815260200190815260200160002060040160006101000a81548160ff021916908360ff160217905550600960008481526020019081526020016000206002016001015442611dda9190613f9e565b6009600085815260200190815260200160002060050181905550611e44565b816009600085815260200190815260200160002060040160008282829054906101000a900460ff16611e2b9190614090565b92506101000a81548160ff021916908360ff1602179055505b505050565b6000600560008473ffffffffffffffffffffffffffffffffffffffff1673ffffffffffffffffffffffffffffffffffffffff16815260200190815260200160002060008373ffffffffffffffffffffffffffffffffffffffff1673ffffffffffffffffffffffffffffffffffffffff16815260200190815260200160002060009054906101000a900460ff16905092915050565b611ee56120b6565b73ffffffffffffffffffffffffffffffffffffffff16611f036112b4565b73ffffffffffffffffffffffffffffffffffffffff1614611f59576040517f08c379a0000000000000000000000000000000000000000000000000000000008152600401611f5090613d6e565b60405180910390fd5b600073ffffffffffffffffffffffffffffffffffffffff168173ffffffffffffffffffffffffffffffffffffffff161415611fc9576040517f08c379a0000000000000000000000000000000000000000000000000000000008152600401611fc090613c0e565b60405180910390fd5b611fd2816124b1565b50565b61012c81565b600081565b60007f01ffc9a7000000000000000000000000000000000000000000000000000000007bffffffffffffffffffffffffffffffffffffffffffffffffffffffff1916827bffffffffffffffffffffffffffffffffffffffffffffffffffffffff1916149050919050565b60008073ffffffffffffffffffffffffffffffffffffffff166002600084815260200190815260200160002060009054906101000a900473ffffffffffffffffffffffffffffffffffffffff1673ffffffffffffffffffffffffffffffffffffffff1614159050919050565b600033905090565b816004600083815260200190815260200160002060006101000a81548173ffffffffffffffffffffffffffffffffffffffff021916908373ffffffffffffffffffffffffffffffffffffffff160217905550808273ffffffffffffffffffffffffffffffffffffffff1661213183610f4e565b73ffffffffffffffffffffffffffffffffffffffff167f8c5be1e5ebec7d5bd14f71427d1e84f3dd0314c0f7b2291e5b200ac8c7c3b92560405160405180910390a45050565b60006121828261204a565b6121c1576040517f08c379a00000000000000000000000000000000000000000000000000000000081526004016121b890613cae565b60405180910390fd5b60006121cc83610f4e565b90508073ffffffffffffffffffffffffffffffffffffffff168473ffffffffffffffffffffffffffffffffffffffff16148061223b57508373ffffffffffffffffffffffffffffffffffffffff166122238461073d565b73ffffffffffffffffffffffffffffffffffffffff16145b8061224c575061224b8185611e49565b5b91505092915050565b8273ffffffffffffffffffffffffffffffffffffffff1661227582610f4e565b73ffffffffffffffffffffffffffffffffffffffff16146122cb576040517f08c379a00000000000000000000000000000000000000000000000000000000081526004016122c290613d8e565b60405180910390fd5b600073ffffffffffffffffffffffffffffffffffffffff168273ffffffffffffffffffffffffffffffffffffffff16141561233b576040517f08c379a000000000000000000000000000000000000000000000000000000000815260040161233290613c4e565b60405180910390fd5b6123468383836127b5565b6123516000826120be565b6001600360008573ffffffffffffffffffffffffffffffffffffffff1673ffffffffffffffffffffffffffffffffffffffff16815260200190815260200160002060008282546123a1919061405c565b925050819055506001600360008473ffffffffffffffffffffffffffffffffffffffff1673ffffffffffffffffffffffffffffffffffffffff16815260200190815260200160002060008282546123f89190613f9e565b92505081905550816002600083815260200190815260200160002060006101000a81548173ffffffffffffffffffffffffffffffffffffffff021916908373ffffffffffffffffffffffffffffffffffffffff160217905550808273ffffffffffffffffffffffffffffffffffffffff168473ffffffffffffffffffffffffffffffffffffffff167fddf252ad1be2c89b69c2b068fc378daa952ba7f163c4a11628f55a4df523b3ef60405160405180910390a4505050565b6000600660009054906101000a900473ffffffffffffffffffffffffffffffffffffffff16905081600660006101000a81548173ffffffffffffffffffffffffffffffffffffffff021916908373ffffffffffffffffffffffffffffffffffffffff1602179055508173ffffffffffffffffffffffffffffffffffffffff168173ffffffffffffffffffffffffffffffffffffffff167f8be0079c531659141344cd1fd0a4f28419497f9722a3daafe3b4186f6b6457e060405160405180910390a35050565b612582848484612255565b61258e84848484612815565b6125cd576040517f08c379a00000000000000000000000000000000000000000000000000000000081526004016125c490613bee565b60405180910390fd5b50505050565b606060405180602001604052806000815250905090565b60606000821415612632576040518060400160405280600181526020017f30000000000000000000000000000000000000000000000000000000000000008152509050612792565b600082905060005b6000821461266457808061264d906141c7565b915050600a8261265d919061402b565b915061263a565b60008167ffffffffffffffff8111156126a6577f4e487b7100000000000000000000000000000000000000000000000000000000600052604160045260246000fd5b6040519080825280601f01601f1916602001820160405280156126d85781602001600182028036833780820191505090505b5090505b6000851461278b576001826126f1919061405c565b9150600a856127009190614210565b603061270c9190613f9e565b60f81b818381518110612748577f4e487b7100000000000000000000000000000000000000000000000000000000600052603260045260246000fd5b60200101907effffffffffffffffffffffffffffffffffffffffffffffffffffffffffffff1916908160001a905350600a85612784919061402b565b94506126dc565b8093505050505b919050565b6127b18282604051806020016040528060008152506129ac565b5050565b80600060096000838152602001908152602001600020600501541461280f576040517f08c379a000000000000000000000000000000000000000000000000000000000815260040161280690613c8e565b60405180910390fd5b50505050565b60006128368473ffffffffffffffffffffffffffffffffffffffff16612a07565b1561299f578373ffffffffffffffffffffffffffffffffffffffff1663150b7a0261285f6120b6565b8786866040518563ffffffff1660e01b81526004016128819493929190613b65565b602060405180830381600087803b15801561289b57600080fd5b505af19250505080156128cc57506040513d601f19601f820116820180604052508101906128c99190613059565b60015b61294f573d80600081146128fc576040519150601f19603f3d011682016040523d82523d6000602084013e612901565b606091505b50600081511415612947576040517f08c379a000000000000000000000000000000000000000000000000000000000815260040161293e90613bee565b60405180910390fd5b805181602001fd5b63150b7a0260e01b7bffffffffffffffffffffffffffffffffffffffffffffffffffffffff1916817bffffffffffffffffffffffffffffffffffffffffffffffffffffffff1916149150506129a4565b600190505b949350505050565b6129b68383612a1a565b6129c36000848484612815565b612a02576040517f08c379a00000000000000000000000000000000000000000000000000000000081526004016129f990613bee565b60405180910390fd5b505050565b600080823b905060008111915050919050565b600073ffffffffffffffffffffffffffffffffffffffff168273ffffffffffffffffffffffffffffffffffffffff161415612a8a576040517f08c379a0000000000000000000000000000000000000000000000000000000008152600401612a8190613d2e565b60405180910390fd5b612a938161204a565b15612ad3576040517f08c379a0000000000000000000000000000000000000000000000000000000008152600401612aca90613c2e565b60405180910390fd5b612adf600083836127b5565b6001600360008473ffffffffffffffffffffffffffffffffffffffff1673ffffffffffffffffffffffffffffffffffffffff1681526020019081526020016000206000828254612b2f9190613f9e565b92505081905550816002600083815260200190815260200160002060006101000a81548173ffffffffffffffffffffffffffffffffffffffff021916908373ffffffffffffffffffffffffffffffffffffffff160217905550808273ffffffffffffffffffffffffffffffffffffffff16600073ffffffffffffffffffffffffffffffffffffffff167fddf252ad1be2c89b69c2b068fc378daa952ba7f163c4a11628f55a4df523b3ef60405160405180910390a45050565b6040518060e00160405280600061ffff168152602001600061ffff168152602001600061ffff168152602001600061ffff168152602001600061ffff168152602001600061ffff168152602001600081525090565b6040518060c00160405280600060ff168152602001600061ffff16815260200160608152602001612c6c612be8565b8152602001600060ff168152602001600081525090565b828054612c8f90614195565b90600052602060002090601f016020900481019282612cb15760008555612cf8565b82601f10612cca57805160ff1916838001178555612cf8565b82800160010185558215612cf8579182015b82811115612cf7578251825591602001919060010190612cdc565b5b509050612d059190612d09565b5090565b5b80821115612d22576000816000905550600101612d0a565b5090565b6000612d39612d3484613eb2565b613e81565b905082815260208101848484011115612d5157600080fd5b612d5c848285614153565b509392505050565b6000612d77612d7284613ee2565b613e81565b905082815260208101848484011115612d8f57600080fd5b612d9a848285614153565b509392505050565b600081359050612db18161430e565b92915050565b600081359050612dc681614325565b92915050565b600081359050612ddb8161433c565b92915050565b600081519050612df08161433c565b92915050565b600082601f830112612e0757600080fd5b8135612e17848260208601612d26565b91505092915050565b600082601f830112612e3157600080fd5b8135612e41848260208601612d64565b91505092915050565b600081359050612e5981614353565b92915050565b600081359050612e6e8161436a565b92915050565b600081359050612e8381614381565b92915050565b600060208284031215612e9b57600080fd5b6000612ea984828501612da2565b91505092915050565b60008060408385031215612ec557600080fd5b6000612ed385828601612da2565b9250506020612ee485828601612da2565b9150509250929050565b600080600060608486031215612f0357600080fd5b6000612f1186828701612da2565b9350506020612f2286828701612da2565b9250506040612f3386828701612e5f565b9150509250925092565b60008060008060808587031215612f5357600080fd5b6000612f6187828801612da2565b9450506020612f7287828801612da2565b9350506040612f8387828801612e5f565b925050606085013567ffffffffffffffff811115612fa057600080fd5b612fac87828801612df6565b91505092959194509250565b60008060408385031215612fcb57600080fd5b6000612fd985828601612da2565b9250506020612fea85828601612db7565b9150509250929050565b6000806040838503121561300757600080fd5b600061301585828601612da2565b925050602061302685828601612e5f565b9150509250929050565b60006020828403121561304257600080fd5b600061305084828501612dcc565b91505092915050565b60006020828403121561306b57600080fd5b600061307984828501612de1565b91505092915050565b60006020828403121561309457600080fd5b600082013567ffffffffffffffff8111156130ae57600080fd5b6130ba84828501612e20565b91505092915050565b600080600080600080600060e0888a0312156130de57600080fd5b600088013567ffffffffffffffff8111156130f857600080fd5b6131048a828b01612e20565b97505060206131158a828b01612e74565b96505060406131268a828b01612e74565b95505060606131378a828b01612e74565b94505060806131488a828b01612e74565b93505060a06131598a828b01612e74565b92505060c061316a8a828b01612e74565b91505092959891949750929550565b60006020828403121561318b57600080fd5b600061319984828501612e5f565b91505092915050565b600080604083850312156131b557600080fd5b60006131c385828601612e5f565b92505060206131d485828601612e4a565b9150509250929050565b600080604083850312156131f157600080fd5b60006131ff85828601612e5f565b925050602061321085828601612e74565b9150509250929050565b613223816140c4565b82525050565b613232816140d6565b82525050565b600061324382613f12565b61324d8185613f28565b935061325d818560208601614162565b613266816142fd565b840191505092915050565b600061327c82613f1d565b6132868185613f39565b9350613296818560208601614162565b61329f816142fd565b840191505092915050565b60006132b582613f1d565b6132bf8185613f4a565b93506132cf818560208601614162565b6132d8816142fd565b840191505092915050565b60006132ee82613f1d565b6132f88185613f5b565b9350613308818560208601614162565b80840191505092915050565b6000613321603283613f4a565b91507f4552433732313a207472616e7366657220746f206e6f6e20455243373231526560008301527f63656976657220696d706c656d656e74657200000000000000000000000000006020830152604082019050919050565b6000613387602683613f4a565b91507f4f776e61626c653a206e6577206f776e657220697320746865207a65726f206160008301527f64647265737300000000000000000000000000000000000000000000000000006020830152604082019050919050565b60006133ed601c83613f4a565b91507f4552433732313a20746f6b656e20616c7265616479206d696e746564000000006000830152602082019050919050565b600061342d602483613f4a565b91507f4552433732313a207472616e7366657220746f20746865207a65726f2061646460008301527f72657373000000000000000000000000000000000000000000000000000000006020830152604082019050919050565b6000613493601983613f4a565b91507f4552433732313a20617070726f766520746f2063616c6c6572000000000000006000830152602082019050919050565b60006134d3601583613f4a565b91507f546869732043727564652069732072657374696e6700000000000000000000006000830152602082019050919050565b6000613513602c83613f4a565b91507f4552433732313a206f70657261746f7220717565727920666f72206e6f6e657860008301527f697374656e7420746f6b656e00000000000000000000000000000000000000006020830152604082019050919050565b6000613579603883613f4a565b91507f4552433732313a20617070726f76652063616c6c6572206973206e6f74206f7760008301527f6e6572206e6f7220617070726f76656420666f7220616c6c00000000000000006020830152604082019050919050565b60006135df602a83613f4a565b91507f4552433732313a2062616c616e636520717565727920666f7220746865207a6560008301527f726f2061646472657373000000000000000000000000000000000000000000006020830152604082019050919050565b6000613645602983613f4a565b91507f4552433732313a206f776e657220717565727920666f72206e6f6e657869737460008301527f656e7420746f6b656e00000000000000000000000000000000000000000000006020830152604082019050919050565b60006136ab602083613f4a565b91507f4552433732313a206d696e7420746f20746865207a65726f20616464726573736000830152602082019050919050565b60006136eb602c83613f4a565b91507f4552433732313a20617070726f76656420717565727920666f72206e6f6e657860008301527f697374656e7420746f6b656e00000000000000000000000000000000000000006020830152604082019050919050565b6000613751602083613f4a565b91507f4f776e61626c653a2063616c6c6572206973206e6f7420746865206f776e65726000830152602082019050919050565b6000613791602983613f4a565b91507f4552433732313a207472616e73666572206f6620746f6b656e2074686174206960008301527f73206e6f74206f776e00000000000000000000000000000000000000000000006020830152604082019050919050565b60006137f7602f83613f4a565b91507f4552433732314d657461646174613a2055524920717565727920666f72206e6f60008301527f6e6578697374656e7420746f6b656e00000000000000000000000000000000006020830152604082019050919050565b600061385d602183613f4a565b91507f4552433732313a20617070726f76616c20746f2063757272656e74206f776e6560008301527f72000000000000000000000000000000000000000000000000000000000000006020830152604082019050919050565b60006138c3603183613f4a565b91507f4552433732313a207472616e736665722063616c6c6572206973206e6f74206f60008301527f776e6572206e6f7220617070726f7665640000000000000000000000000000006020830152604082019050919050565b60e0820160008201516139326000850182613ac4565b5060208201516139456020850182613ac4565b5060408201516139586040850182613ac4565b50606082015161396b6060850182613ac4565b50608082015161397e6080850182613ac4565b5060a082015161399160a0850182613ac4565b5060c08201516139a460c0850182613ae2565b50505050565b60e0820160008201516139c06000850182613ac4565b5060208201516139d36020850182613ac4565b5060408201516139e66040850182613ac4565b5060608201516139f96060850182613ac4565b506080820151613a0c6080850182613ac4565b5060a0820151613a1f60a0850182613ac4565b5060c0820151613a3260c0850182613ae2565b50505050565b600061018083016000830151613a516000860182613b00565b506020830151613a646020860182613ac4565b5060408301518482036040860152613a7c8282613271565b9150506060830151613a91606086018261391c565b506080830151613aa5610140860182613b00565b5060a0830151613ab9610160860182613ae2565b508091505092915050565b613acd8161410e565b82525050565b613adc8161410e565b82525050565b613aeb8161413c565b82525050565b613afa8161413c565b82525050565b613b0981614146565b82525050565b6000613b1b82846132e3565b915081905092915050565b6000613b3282856132e3565b9150613b3e82846132e3565b91508190509392505050565b6000602082019050613b5f600083018461321a565b92915050565b6000608082019050613b7a600083018761321a565b613b87602083018661321a565b613b946040830185613af1565b8181036060830152613ba68184613238565b905095945050505050565b6000602082019050613bc66000830184613229565b92915050565b60006020820190508181036000830152613be681846132aa565b905092915050565b60006020820190508181036000830152613c0781613314565b9050919050565b60006020820190508181036000830152613c278161337a565b9050919050565b60006020820190508181036000830152613c47816133e0565b9050919050565b60006020820190508181036000830152613c6781613420565b9050919050565b60006020820190508181036000830152613c8781613486565b9050919050565b60006020820190508181036000830152613ca7816134c6565b9050919050565b60006020820190508181036000830152613cc781613506565b9050919050565b60006020820190508181036000830152613ce78161356c565b9050919050565b60006020820190508181036000830152613d07816135d2565b9050919050565b60006020820190508181036000830152613d2781613638565b9050919050565b60006020820190508181036000830152613d478161369e565b9050919050565b60006020820190508181036000830152613d67816136de565b9050919050565b60006020820190508181036000830152613d8781613744565b9050919050565b60006020820190508181036000830152613da781613784565b9050919050565b60006020820190508181036000830152613dc7816137ea565b9050919050565b60006020820190508181036000830152613de781613850565b9050919050565b60006020820190508181036000830152613e07816138b6565b9050919050565b600060e082019050613e2360008301846139aa565b92915050565b60006020820190508181036000830152613e438184613a38565b905092915050565b6000602082019050613e606000830184613ad3565b92915050565b6000602082019050613e7b6000830184613af1565b92915050565b6000604051905081810181811067ffffffffffffffff82111715613ea857613ea76142ce565b5b8060405250919050565b600067ffffffffffffffff821115613ecd57613ecc6142ce565b5b601f19601f8301169050602081019050919050565b600067ffffffffffffffff821115613efd57613efc6142ce565b5b601f19601f8301169050602081019050919050565b600081519050919050565b600081519050919050565b600082825260208201905092915050565b600082825260208201905092915050565b600082825260208201905092915050565b600081905092915050565b6000613f718261410e565b9150613f7c8361410e565b92508261ffff03821115613f9357613f92614241565b5b828201905092915050565b6000613fa98261413c565b9150613fb48361413c565b9250827fffffffffffffffffffffffffffffffffffffffffffffffffffffffffffffffff03821115613fe957613fe8614241565b5b828201905092915050565b6000613fff82614146565b915061400a83614146565b92508260ff038211156140205761401f614241565b5b828201905092915050565b60006140368261413c565b91506140418361413c565b92508261405157614050614270565b5b828204905092915050565b60006140678261413c565b91506140728361413c565b92508282101561408557614084614241565b5b828203905092915050565b600061409b82614146565b91506140a683614146565b9250828210156140b9576140b8614241565b5b828203905092915050565b60006140cf8261411c565b9050919050565b60008115159050919050565b60007fffffffff0000000000000000000000000000000000000000000000000000000082169050919050565b600061ffff82169050919050565b600073ffffffffffffffffffffffffffffffffffffffff82169050919050565b6000819050919050565b600060ff82169050919050565b82818337600083830152505050565b60005b83811015614180578082015181840152602081019050614165565b8381111561418f576000848401525b50505050565b600060028204905060018216806141ad57607f821691505b602082108114156141c1576141c061429f565b5b50919050565b60006141d28261413c565b91507fffffffffffffffffffffffffffffffffffffffffffffffffffffffffffffffff82141561420557614204614241565b5b600182019050919050565b600061421b8261413c565b91506142268361413c565b92508261423657614235614270565b5b828206905092915050565b7f4e487b7100000000000000000000000000000000000000000000000000000000600052601160045260246000fd5b7f4e487b7100000000000000000000000000000000000000000000000000000000600052601260045260246000fd5b7f4e487b7100000000000000000000000000000000000000000000000000000000600052602260045260246000fd5b7f4e487b7100000000000000000000000000000000000000000000000000000000600052604160045260246000fd5b6000601f19601f8301169050919050565b614317816140c4565b811461432257600080fd5b50565b61432e816140d6565b811461433957600080fd5b50565b614345816140e2565b811461435057600080fd5b50565b61435c8161410e565b811461436757600080fd5b50565b6143738161413c565b811461437e57600080fd5b50565b61438a81614146565b811461439557600080fd5b5056fea2646970667358221220636c3f975c270db1327eb30390b0cedb8462f90aebea3535874e2014a87c4db464736f6c63430008000033",
  "immutableReferences": {},
  "source": "pragma solidity 0.8.0;\r\n\r\nimport '../node_modules/@openzeppelin/contracts/token/ERC721/ERC721.sol';\r\n\r\nimport '../node_modules/@openzeppelin/contracts/access/Ownable.sol';\r\n\r\ncontract CrudeToken is ERC721 , Ownable {\r\n\r\n  uint256 nextCrudeId = 0;\r\n\r\n  uint16 public constant LVL_1_XP = 0;\r\n  uint16 public constant LVL_2_XP = 300;\r\n  uint16 public constant LVL_3_XP = 750;\r\n  uint16 public constant LVL_4_XP = 1500;\r\n  uint16 public constant LVL_5_XP = 3000;\r\n\r\n  uint16 public constant MAX_ENERGY = 100;\r\n  uint256 public constant BASE_RESTING_TIME = 24 hours;\r\n\r\n  struct CrudeStats {\r\n    uint16 hp; // Health Points\r\n    uint16 str; // Strength Power\r\n    uint16 mp; // Magical Power\r\n    uint16 ag; // Agility Points \r\n    uint16 pDef; // Phisical Defense\r\n    uint16 mDef; // Magical defense\r\n    uint256 restingTime; // Time to rest\r\n  }\r\n\r\n  struct Crude {\r\n    uint8 level; // 0 - 10 || 0 == kid\r\n    uint16 xp; // XP Points: 0 -> LVL_N_XP \r\n    string tribe;\r\n    CrudeStats stats;\r\n    uint8 energy; // 0 - 100 - 0 cannot be traded and cannot play\r\n    uint256 restingEndTimestamp; // Timestamp when Crude is recovered. if != 0 cannot be traded and cannot play\r\n  }\r\n\r\n  mapping(string => CrudeStats) private _tribeStats;\r\n  mapping(uint256 => Crude) private _tokenDetails;\r\n  constructor(string memory name, string memory symbol) ERC721(name, symbol) {}\r\n\r\n  modifier isRested(uint256 tokenId){\r\n    require(_tokenDetails[tokenId].restingEndTimestamp == 0,'This Crude is resting');\r\n    _;\r\n  }\r\n\r\n  function getTribeDetails(string memory tribeName) public view returns (CrudeStats memory){\r\n    return _tribeStats[tribeName];\r\n  }\r\n\r\n  function getTokenDetails(uint256 tokenId) public view returns (Crude memory){\r\n    return _tokenDetails[tokenId];\r\n  }\r\n\r\n  function addTribe(\r\n    string memory tribeName,\r\n    uint8 hp,\r\n    uint8 str,\r\n    uint8 mp,\r\n    uint8 ag,\r\n    uint8 pDef,\r\n    uint8 mDef\r\n  ) public onlyOwner {\r\n    require(_tribeStats[tribeName].hp == 0); // Check that tribe is not present (hp can't be 0)\r\n    _tribeStats[tribeName] = CrudeStats(hp, str, mp, ag, pDef, mDef, BASE_RESTING_TIME);\r\n  }\r\n\r\n  function mint(\r\n    string memory _tribe\r\n  ) public onlyOwner {\r\n    _tokenDetails[nextCrudeId] = Crude(0, 0, _tribe, _tribeStats[_tribe], 100, 0);\r\n    _safeMint(msg.sender, nextCrudeId);\r\n    nextCrudeId++;\r\n  }\r\n\r\n  function _beforeTokenTransfer(\r\n    address from,\r\n    address to,\r\n    uint256 tokenId\r\n  ) internal override isRested(tokenId){}\r\n\r\n  // [CHARACTER MANAGEMENT]\r\n\r\n  // XP Management\r\n  function addXP(\r\n    uint256 tokenId,\r\n    uint16 xpPoints\r\n  ) public onlyOwner {\r\n    require(xpPoints > 0); \r\n    require(_tokenDetails[tokenId].stats.hp != 0);\r\n    require(_tokenDetails[tokenId].xp + xpPoints <= LVL_5_XP); \r\n\r\n    _tokenDetails[tokenId].xp += xpPoints;\r\n    if (_tokenDetails[tokenId].xp > LVL_2_XP && _tokenDetails[tokenId].level < 2){\r\n      _tokenDetails[tokenId].level = 2;\r\n    }\r\n    if (_tokenDetails[tokenId].xp > LVL_3_XP && _tokenDetails[tokenId].level < 3){\r\n      _tokenDetails[tokenId].level = 3;\r\n    }\r\n    if (_tokenDetails[tokenId].xp > LVL_4_XP && _tokenDetails[tokenId].level < 4){\r\n      _tokenDetails[tokenId].level = 4;\r\n    }\r\n    if (_tokenDetails[tokenId].xp == LVL_5_XP && _tokenDetails[tokenId].level < 5){\r\n      _tokenDetails[tokenId].level = 5;\r\n    }\r\n  }\r\n  \r\n  // Energy Management\r\n  function feed(\r\n    uint256 tokenId,\r\n    uint8 energyToRestore\r\n  ) public onlyOwner isRested(tokenId) {\r\n    require(energyToRestore > 0);\r\n    require(_tokenDetails[tokenId].energy + energyToRestore <= 100);\r\n    _tokenDetails[tokenId].energy += energyToRestore;\r\n  }\r\n\r\n  function exhaust(\r\n    uint256 tokenId,\r\n    uint8 energyToLose\r\n  ) public onlyOwner isRested(tokenId) {\r\n     require(energyToLose > 0);\r\n     if (energyToLose - _tokenDetails[tokenId].energy < 0){\r\n       _tokenDetails[tokenId].energy = 0;\r\n       _tokenDetails[tokenId].restingEndTimestamp = block.timestamp + _tokenDetails[tokenId].stats.restingTime;\r\n     } else {\r\n       _tokenDetails[tokenId].energy -= energyToLose;\r\n     }\r\n  }\r\n}\r\n\r\n",
  "sourcePath": "C:\\Users\\alexl\\git\\_PERSONAL\\simple-nft-game\\contracts\\CrudeToken.sol",
  "compiler": {
    "name": "solc",
    "version": "0.8.0+commit.c7dfd78e.Emscripten.clang"
  },
  "schemaVersion": "3.4.3",
  "updatedAt": "2021-09-02T12:07:03.170Z",
  "networkType": "ethereum",
  "devdoc": {
    "kind": "dev",
    "methods": {
      "approve(address,uint256)": {
        "details": "See {IERC721-approve}."
      },
      "balanceOf(address)": {
        "details": "See {IERC721-balanceOf}."
      },
      "getApproved(uint256)": {
        "details": "See {IERC721-getApproved}."
      },
      "isApprovedForAll(address,address)": {
        "details": "See {IERC721-isApprovedForAll}."
      },
      "name()": {
        "details": "See {IERC721Metadata-name}."
      },
      "owner()": {
        "details": "Returns the address of the current owner."
      },
      "ownerOf(uint256)": {
        "details": "See {IERC721-ownerOf}."
      },
      "renounceOwnership()": {
        "details": "Leaves the contract without owner. It will not be possible to call `onlyOwner` functions anymore. Can only be called by the current owner. NOTE: Renouncing ownership will leave the contract without an owner, thereby removing any functionality that is only available to the owner."
      },
      "safeTransferFrom(address,address,uint256)": {
        "details": "See {IERC721-safeTransferFrom}."
      },
      "safeTransferFrom(address,address,uint256,bytes)": {
        "details": "See {IERC721-safeTransferFrom}."
      },
      "setApprovalForAll(address,bool)": {
        "details": "See {IERC721-setApprovalForAll}."
      },
      "supportsInterface(bytes4)": {
        "details": "See {IERC165-supportsInterface}."
      },
      "symbol()": {
        "details": "See {IERC721Metadata-symbol}."
      },
      "tokenURI(uint256)": {
        "details": "See {IERC721Metadata-tokenURI}."
      },
      "transferFrom(address,address,uint256)": {
        "details": "See {IERC721-transferFrom}."
      },
      "transferOwnership(address)": {
        "details": "Transfers ownership of the contract to a new account (`newOwner`). Can only be called by the current owner."
      }
    },
    "version": 1
  },
  "userdoc": {
    "kind": "user",
    "methods": {},
    "version": 1
  }
}