{
  "contractName": "Gen0Token",
  "abi": [
    {
      "inputs": [
        {
          "internalType": "string",
          "name": "name",
          "type": "string"
        },
        {
          "internalType": "string",
          "name": "symbol",
          "type": "string"
        }
      ],
      "stateMutability": "nonpayable",
      "type": "constructor"
    },
    {
      "anonymous": false,
      "inputs": [
        {
          "indexed": true,
          "internalType": "address",
          "name": "owner",
          "type": "address"
        },
        {
          "indexed": true,
          "internalType": "address",
          "name": "approved",
          "type": "address"
        },
        {
          "indexed": true,
          "internalType": "uint256",
          "name": "tokenId",
          "type": "uint256"
        }
      ],
      "name": "Approval",
      "type": "event"
    },
    {
      "anonymous": false,
      "inputs": [
        {
          "indexed": true,
          "internalType": "address",
          "name": "owner",
          "type": "address"
        },
        {
          "indexed": true,
          "internalType": "address",
          "name": "operator",
          "type": "address"
        },
        {
          "indexed": false,
          "internalType": "bool",
          "name": "approved",
          "type": "bool"
        }
      ],
      "name": "ApprovalForAll",
      "type": "event"
    },
    {
      "anonymous": false,
      "inputs": [
        {
          "indexed": true,
          "internalType": "address",
          "name": "previousOwner",
          "type": "address"
        },
        {
          "indexed": true,
          "internalType": "address",
          "name": "newOwner",
          "type": "address"
        }
      ],
      "name": "OwnershipTransferred",
      "type": "event"
    },
    {
      "anonymous": false,
      "inputs": [
        {
          "indexed": true,
          "internalType": "address",
          "name": "from",
          "type": "address"
        },
        {
          "indexed": true,
          "internalType": "address",
          "name": "to",
          "type": "address"
        },
        {
          "indexed": true,
          "internalType": "uint256",
          "name": "tokenId",
          "type": "uint256"
        }
      ],
      "name": "Transfer",
      "type": "event"
    },
    {
      "inputs": [],
      "name": "BASE_RESTING_TIME",
      "outputs": [
        {
          "internalType": "uint256",
          "name": "",
          "type": "uint256"
        }
      ],
      "stateMutability": "view",
      "type": "function"
    },
    {
      "inputs": [],
      "name": "LVL_1_XP",
      "outputs": [
        {
          "internalType": "uint16",
          "name": "",
          "type": "uint16"
        }
      ],
      "stateMutability": "view",
      "type": "function"
    },
    {
      "inputs": [],
      "name": "LVL_2_XP",
      "outputs": [
        {
          "internalType": "uint16",
          "name": "",
          "type": "uint16"
        }
      ],
      "stateMutability": "view",
      "type": "function"
    },
    {
      "inputs": [],
      "name": "LVL_3_XP",
      "outputs": [
        {
          "internalType": "uint16",
          "name": "",
          "type": "uint16"
        }
      ],
      "stateMutability": "view",
      "type": "function"
    },
    {
      "inputs": [],
      "name": "LVL_4_XP",
      "outputs": [
        {
          "internalType": "uint16",
          "name": "",
          "type": "uint16"
        }
      ],
      "stateMutability": "view",
      "type": "function"
    },
    {
      "inputs": [],
      "name": "LVL_5_XP",
      "outputs": [
        {
          "internalType": "uint16",
          "name": "",
          "type": "uint16"
        }
      ],
      "stateMutability": "view",
      "type": "function"
    },
    {
      "inputs": [],
      "name": "MAX_ENERGY",
      "outputs": [
        {
          "internalType": "uint16",
          "name": "",
          "type": "uint16"
        }
      ],
      "stateMutability": "view",
      "type": "function"
    },
    {
      "inputs": [
        {
          "internalType": "address",
          "name": "to",
          "type": "address"
        },
        {
          "internalType": "uint256",
          "name": "tokenId",
          "type": "uint256"
        }
      ],
      "name": "approve",
      "outputs": [],
      "stateMutability": "nonpayable",
      "type": "function"
    },
    {
      "inputs": [
        {
          "internalType": "address",
          "name": "owner",
          "type": "address"
        }
      ],
      "name": "balanceOf",
      "outputs": [
        {
          "internalType": "uint256",
          "name": "",
          "type": "uint256"
        }
      ],
      "stateMutability": "view",
      "type": "function"
    },
    {
      "inputs": [
        {
          "internalType": "uint256",
          "name": "tokenId",
          "type": "uint256"
        }
      ],
      "name": "getApproved",
      "outputs": [
        {
          "internalType": "address",
          "name": "",
          "type": "address"
        }
      ],
      "stateMutability": "view",
      "type": "function"
    },
    {
      "inputs": [
        {
          "internalType": "address",
          "name": "owner",
          "type": "address"
        },
        {
          "internalType": "address",
          "name": "operator",
          "type": "address"
        }
      ],
      "name": "isApprovedForAll",
      "outputs": [
        {
          "internalType": "bool",
          "name": "",
          "type": "bool"
        }
      ],
      "stateMutability": "view",
      "type": "function"
    },
    {
      "inputs": [],
      "name": "name",
      "outputs": [
        {
          "internalType": "string",
          "name": "",
          "type": "string"
        }
      ],
      "stateMutability": "view",
      "type": "function"
    },
    {
      "inputs": [],
      "name": "owner",
      "outputs": [
        {
          "internalType": "address",
          "name": "",
          "type": "address"
        }
      ],
      "stateMutability": "view",
      "type": "function"
    },
    {
      "inputs": [
        {
          "internalType": "uint256",
          "name": "tokenId",
          "type": "uint256"
        }
      ],
      "name": "ownerOf",
      "outputs": [
        {
          "internalType": "address",
          "name": "",
          "type": "address"
        }
      ],
      "stateMutability": "view",
      "type": "function"
    },
    {
      "inputs": [],
      "name": "renounceOwnership",
      "outputs": [],
      "stateMutability": "nonpayable",
      "type": "function"
    },
    {
      "inputs": [
        {
          "internalType": "address",
          "name": "from",
          "type": "address"
        },
        {
          "internalType": "address",
          "name": "to",
          "type": "address"
        },
        {
          "internalType": "uint256",
          "name": "tokenId",
          "type": "uint256"
        }
      ],
      "name": "safeTransferFrom",
      "outputs": [],
      "stateMutability": "nonpayable",
      "type": "function"
    },
    {
      "inputs": [
        {
          "internalType": "address",
          "name": "from",
          "type": "address"
        },
        {
          "internalType": "address",
          "name": "to",
          "type": "address"
        },
        {
          "internalType": "uint256",
          "name": "tokenId",
          "type": "uint256"
        },
        {
          "internalType": "bytes",
          "name": "_data",
          "type": "bytes"
        }
      ],
      "name": "safeTransferFrom",
      "outputs": [],
      "stateMutability": "nonpayable",
      "type": "function"
    },
    {
      "inputs": [
        {
          "internalType": "address",
          "name": "operator",
          "type": "address"
        },
        {
          "internalType": "bool",
          "name": "approved",
          "type": "bool"
        }
      ],
      "name": "setApprovalForAll",
      "outputs": [],
      "stateMutability": "nonpayable",
      "type": "function"
    },
    {
      "inputs": [
        {
          "internalType": "bytes4",
          "name": "interfaceId",
          "type": "bytes4"
        }
      ],
      "name": "supportsInterface",
      "outputs": [
        {
          "internalType": "bool",
          "name": "",
          "type": "bool"
        }
      ],
      "stateMutability": "view",
      "type": "function"
    },
    {
      "inputs": [],
      "name": "symbol",
      "outputs": [
        {
          "internalType": "string",
          "name": "",
          "type": "string"
        }
      ],
      "stateMutability": "view",
      "type": "function"
    },
    {
      "inputs": [
        {
          "internalType": "uint256",
          "name": "tokenId",
          "type": "uint256"
        }
      ],
      "name": "tokenURI",
      "outputs": [
        {
          "internalType": "string",
          "name": "",
          "type": "string"
        }
      ],
      "stateMutability": "view",
      "type": "function"
    },
    {
      "inputs": [
        {
          "internalType": "address",
          "name": "from",
          "type": "address"
        },
        {
          "internalType": "address",
          "name": "to",
          "type": "address"
        },
        {
          "internalType": "uint256",
          "name": "tokenId",
          "type": "uint256"
        }
      ],
      "name": "transferFrom",
      "outputs": [],
      "stateMutability": "nonpayable",
      "type": "function"
    },
    {
      "inputs": [
        {
          "internalType": "address",
          "name": "newOwner",
          "type": "address"
        }
      ],
      "name": "transferOwnership",
      "outputs": [],
      "stateMutability": "nonpayable",
      "type": "function"
    },
    {
      "inputs": [
        {
          "internalType": "string",
          "name": "_name",
          "type": "string"
        },
        {
          "internalType": "uint8",
          "name": "hp",
          "type": "uint8"
        },
        {
          "internalType": "uint8",
          "name": "str",
          "type": "uint8"
        },
        {
          "internalType": "uint8",
          "name": "zp",
          "type": "uint8"
        },
        {
          "internalType": "uint8",
          "name": "ag",
          "type": "uint8"
        },
        {
          "internalType": "uint8",
          "name": "pDef",
          "type": "uint8"
        },
        {
          "internalType": "uint8",
          "name": "mDef",
          "type": "uint8"
        }
      ],
      "name": "addTribe",
      "outputs": [],
      "stateMutability": "nonpayable",
      "type": "function"
    },
    {
      "inputs": [
        {
          "internalType": "string",
          "name": "_tribe",
          "type": "string"
        }
      ],
      "name": "mint",
      "outputs": [],
      "stateMutability": "nonpayable",
      "type": "function"
    },
    {
      "inputs": [
        {
          "internalType": "uint256",
          "name": "tokenId",
          "type": "uint256"
        },
        {
          "internalType": "uint16",
          "name": "xpPoints",
          "type": "uint16"
        }
      ],
      "name": "addXP",
      "outputs": [],
      "stateMutability": "nonpayable",
      "type": "function"
    },
    {
      "inputs": [
        {
          "internalType": "uint256",
          "name": "tokenId",
          "type": "uint256"
        },
        {
          "internalType": "uint8",
          "name": "energyToRestore",
          "type": "uint8"
        }
      ],
      "name": "feed",
      "outputs": [],
      "stateMutability": "nonpayable",
      "type": "function"
    },
    {
      "inputs": [
        {
          "internalType": "uint256",
          "name": "tokenId",
          "type": "uint256"
        },
        {
          "internalType": "uint8",
          "name": "energyToLose",
          "type": "uint8"
        }
      ],
      "name": "exhaust",
      "outputs": [],
      "stateMutability": "nonpayable",
      "type": "function"
    }
  ],
  "bytecode": "0x608060405260006007553480156200001657600080fd5b506040516200419c3803806200419c83398181016040528101906200003c91906200028a565b818181600090805190602001906200005692919062000168565b5080600190805190602001906200006f92919062000168565b50505062000092620000866200009a60201b60201c565b620000a260201b60201c565b50506200042e565b600033905090565b6000600660009054906101000a900473ffffffffffffffffffffffffffffffffffffffff16905081600660006101000a81548173ffffffffffffffffffffffffffffffffffffffff021916908373ffffffffffffffffffffffffffffffffffffffff1602179055508173ffffffffffffffffffffffffffffffffffffffff168173ffffffffffffffffffffffffffffffffffffffff167f8be0079c531659141344cd1fd0a4f28419497f9722a3daafe3b4186f6b6457e060405160405180910390a35050565b82805462000176906200039a565b90600052602060002090601f0160209004810192826200019a5760008555620001e6565b82601f10620001b557805160ff1916838001178555620001e6565b82800160010185558215620001e6579182015b82811115620001e5578251825591602001919060010190620001c8565b5b509050620001f59190620001f9565b5090565b5b8082111562000214576000816000905550600101620001fa565b5090565b60006200022f620002298462000331565b620002fd565b9050828152602081018484840111156200024857600080fd5b6200025584828562000364565b509392505050565b600082601f8301126200026f57600080fd5b81516200028184826020860162000218565b91505092915050565b600080604083850312156200029e57600080fd5b600083015167ffffffffffffffff811115620002b957600080fd5b620002c7858286016200025d565b925050602083015167ffffffffffffffff811115620002e557600080fd5b620002f3858286016200025d565b9150509250929050565b6000604051905081810181811067ffffffffffffffff82111715620003275762000326620003ff565b5b8060405250919050565b600067ffffffffffffffff8211156200034f576200034e620003ff565b5b601f19601f8301169050602081019050919050565b60005b838110156200038457808201518184015260208101905062000367565b8381111562000394576000848401525b50505050565b60006002820490506001821680620003b357607f821691505b60208210811415620003ca57620003c9620003d0565b5b50919050565b7f4e487b7100000000000000000000000000000000000000000000000000000000600052602260045260246000fd5b7f4e487b7100000000000000000000000000000000000000000000000000000000600052604160045260246000fd5b613d5e806200043e6000396000f3fe608060405234801561001057600080fd5b50600436106101c45760003560e01c806382927fe0116100f9578063c87b56dd11610097578063e985e9c511610071578063e985e9c5146104cb578063f2fde38b146104fb578063f4cec2ab14610517578063fd5070e714610535576101c4565b8063c87b56dd14610463578063d85d3d2714610493578063e1a5bd8a146104af576101c4565b806395d89b41116100d357806395d89b41146103ef578063a22cb4651461040d578063a2e28e7414610429578063b88d4fde14610447576101c4565b806382927fe0146103975780638da5cb5b146103b3578063936ed848146103d1576101c4565b806342842e0e116101665780634cd11a1e116101405780634cd11a1e1461030f5780636352211e1461032d57806370a082311461035d578063715018a61461038d576101c4565b806342842e0e146102b957806346ae59bc146102d5578063495f5a96146102f3576101c4565b8063095ea7b3116101a2578063095ea7b31461024757806310352ba1146102635780631fdebc441461027f57806323b872dd1461029d576101c4565b806301ffc9a7146101c957806306fdde03146101f9578063081812fc14610217575b600080fd5b6101e360048036038101906101de9190612c1c565b610553565b6040516101f0919061358f565b60405180910390f35b610201610635565b60405161020e91906135aa565b60405180910390f35b610231600480360381019061022c9190612d65565b6106c7565b60405161023e9190613528565b60405180910390f35b610261600480360381019061025c9190612be0565b61074c565b005b61027d60048036038101906102789190612caf565b610864565b005b610287610a86565b60405161029491906137ec565b60405180910390f35b6102b760048036038101906102b29190612ada565b610a8b565b005b6102d360048036038101906102ce9190612ada565b610aeb565b005b6102dd610b0b565b6040516102ea91906137ec565b60405180910390f35b61030d60048036038101906103089190612d8e565b610b11565b005b610317610ed2565b60405161032491906137ec565b60405180910390f35b61034760048036038101906103429190612d65565b610ed8565b6040516103549190613528565b60405180910390f35b61037760048036038101906103729190612a75565b610f8a565b6040516103849190613807565b60405180910390f35b610395611042565b005b6103b160048036038101906103ac9190612dca565b6110ca565b005b6103bb61123e565b6040516103c89190613528565b60405180910390f35b6103d9611268565b6040516103e691906137ec565b60405180910390f35b6103f761126e565b60405161040491906135aa565b60405180910390f35b61042760048036038101906104229190612ba4565b611300565b005b610431611481565b60405161043e9190613807565b60405180910390f35b610461600480360381019061045c9190612b29565b611488565b005b61047d60048036038101906104789190612d65565b6114ea565b60405161048a91906135aa565b60405180910390f35b6104ad60048036038101906104a89190612c6e565b611591565b005b6104c960048036038101906104c49190612dca565b6118ec565b005b6104e560048036038101906104e09190612a9e565b611ad0565b6040516104f2919061358f565b60405180910390f35b61051560048036038101906105109190612a75565b611b64565b005b61051f611c5c565b60405161052c91906137ec565b60405180910390f35b61053d611c62565b60405161054a91906137ec565b60405180910390f35b60007f80ac58cd000000000000000000000000000000000000000000000000000000007bffffffffffffffffffffffffffffffffffffffffffffffffffffffff1916827bffffffffffffffffffffffffffffffffffffffffffffffffffffffff1916148061061e57507f5b5e139f000000000000000000000000000000000000000000000000000000007bffffffffffffffffffffffffffffffffffffffffffffffffffffffff1916827bffffffffffffffffffffffffffffffffffffffffffffffffffffffff1916145b8061062e575061062d82611c67565b5b9050919050565b60606000805461064490613b25565b80601f016020809104026020016040519081016040528092919081815260200182805461067090613b25565b80156106bd5780601f10610692576101008083540402835291602001916106bd565b820191906000526020600020905b8154815290600101906020018083116106a057829003601f168201915b5050505050905090565b60006106d282611cd1565b610711576040517f08c379a00000000000000000000000000000000000000000000000000000000081526004016107089061372c565b60405180910390fd5b6004600083815260200190815260200160002060009054906101000a900473ffffffffffffffffffffffffffffffffffffffff169050919050565b600061075782610ed8565b90508073ffffffffffffffffffffffffffffffffffffffff168373ffffffffffffffffffffffffffffffffffffffff1614156107c8576040517f08c379a00000000000000000000000000000000000000000000000000000000081526004016107bf906137ac565b60405180910390fd5b8073ffffffffffffffffffffffffffffffffffffffff166107e7611d3d565b73ffffffffffffffffffffffffffffffffffffffff161480610816575061081581610810611d3d565b611ad0565b5b610855576040517f08c379a000000000000000000000000000000000000000000000000000000000815260040161084c906136ac565b60405180910390fd5b61085f8383611d45565b505050565b61086c611d3d565b73ffffffffffffffffffffffffffffffffffffffff1661088a61123e565b73ffffffffffffffffffffffffffffffffffffffff16146108e0576040517f08c379a00000000000000000000000000000000000000000000000000000000081526004016108d79061374c565b60405180910390fd5b60006008886040516108f291906134ed565b908152602001604051809103902060000160009054906101000a900461ffff1661ffff161461092057600080fd5b6040518060e001604052808760ff1661ffff1681526020018660ff1661ffff1681526020018560ff1661ffff1681526020018460ff1661ffff1681526020018360ff1661ffff1681526020018260ff1661ffff1681526020016201518081525060088860405161099091906134ed565b908152602001604051809103902060008201518160000160006101000a81548161ffff021916908361ffff16021790555060208201518160000160026101000a81548161ffff021916908361ffff16021790555060408201518160000160046101000a81548161ffff021916908361ffff16021790555060608201518160000160066101000a81548161ffff021916908361ffff16021790555060808201518160000160086101000a81548161ffff021916908361ffff16021790555060a082015181600001600a6101000a81548161ffff021916908361ffff16021790555060c0820151816001015590505050505050505050565b606481565b610a9c610a96611d3d565b82611dfe565b610adb576040517f08c379a0000000000000000000000000000000000000000000000000000000008152600401610ad2906137cc565b60405180910390fd5b610ae6838383611edc565b505050565b610b0683838360405180602001604052806000815250611488565b505050565b6105dc81565b610b19611d3d565b73ffffffffffffffffffffffffffffffffffffffff16610b3761123e565b73ffffffffffffffffffffffffffffffffffffffff1614610b8d576040517f08c379a0000000000000000000000000000000000000000000000000000000008152600401610b849061374c565b60405180910390fd5b60008161ffff1611610b9e57600080fd5b60006009600084815260200190815260200160002060020160000160009054906101000a900461ffff1661ffff161415610bd757600080fd5b610bb861ffff16816009600085815260200190815260200160002060000160019054906101000a900461ffff16610c0e91906138f6565b61ffff161115610c1d57600080fd5b806009600084815260200190815260200160002060000160018282829054906101000a900461ffff16610c5091906138f6565b92506101000a81548161ffff021916908361ffff16021790555061012c61ffff166009600084815260200190815260200160002060000160019054906101000a900461ffff1661ffff16118015610ccd575060026009600084815260200190815260200160002060000160009054906101000a900460ff1660ff16105b15610d035760026009600084815260200190815260200160002060000160006101000a81548160ff021916908360ff1602179055505b6102ee61ffff166009600084815260200190815260200160002060000160019054906101000a900461ffff1661ffff16118015610d66575060036009600084815260200190815260200160002060000160009054906101000a900460ff1660ff16105b15610d9c5760036009600084815260200190815260200160002060000160006101000a81548160ff021916908360ff1602179055505b6105dc61ffff166009600084815260200190815260200160002060000160019054906101000a900461ffff1661ffff16118015610dff575060046009600084815260200190815260200160002060000160009054906101000a900460ff1660ff16105b15610e355760046009600084815260200190815260200160002060000160006101000a81548160ff021916908360ff1602179055505b610bb861ffff166009600084815260200190815260200160002060000160019054906101000a900461ffff1661ffff16148015610e98575060056009600084815260200190815260200160002060000160009054906101000a900460ff1660ff16105b15610ece5760056009600084815260200190815260200160002060000160006101000a81548160ff021916908360ff1602179055505b5050565b6102ee81565b6000806002600084815260200190815260200160002060009054906101000a900473ffffffffffffffffffffffffffffffffffffffff169050600073ffffffffffffffffffffffffffffffffffffffff168173ffffffffffffffffffffffffffffffffffffffff161415610f81576040517f08c379a0000000000000000000000000000000000000000000000000000000008152600401610f78906136ec565b60405180910390fd5b80915050919050565b60008073ffffffffffffffffffffffffffffffffffffffff168273ffffffffffffffffffffffffffffffffffffffff161415610ffb576040517f08c379a0000000000000000000000000000000000000000000000000000000008152600401610ff2906136cc565b60405180910390fd5b600360008373ffffffffffffffffffffffffffffffffffffffff1673ffffffffffffffffffffffffffffffffffffffff168152602001908152602001600020549050919050565b61104a611d3d565b73ffffffffffffffffffffffffffffffffffffffff1661106861123e565b73ffffffffffffffffffffffffffffffffffffffff16146110be576040517f08c379a00000000000000000000000000000000000000000000000000000000081526004016110b59061374c565b60405180910390fd5b6110c86000612138565b565b6110d2611d3d565b73ffffffffffffffffffffffffffffffffffffffff166110f061123e565b73ffffffffffffffffffffffffffffffffffffffff1614611146576040517f08c379a000000000000000000000000000000000000000000000000000000000815260040161113d9061374c565b60405180910390fd5b8160006009600083815260200190815260200160002060050154146111a0576040517f08c379a00000000000000000000000000000000000000000000000000000000081526004016111979061366c565b60405180910390fd5b60008260ff16116111b057600080fd5b6064826009600086815260200190815260200160002060040160009054906101000a900460ff166111e19190613984565b60ff1611156111ef57600080fd5b816009600085815260200190815260200160002060040160008282829054906101000a900460ff166112219190613984565b92506101000a81548160ff021916908360ff160217905550505050565b6000600660009054906101000a900473ffffffffffffffffffffffffffffffffffffffff16905090565b610bb881565b60606001805461127d90613b25565b80601f01602080910402602001604051908101604052809291908181526020018280546112a990613b25565b80156112f65780601f106112cb576101008083540402835291602001916112f6565b820191906000526020600020905b8154815290600101906020018083116112d957829003601f168201915b5050505050905090565b611308611d3d565b73ffffffffffffffffffffffffffffffffffffffff168273ffffffffffffffffffffffffffffffffffffffff161415611376576040517f08c379a000000000000000000000000000000000000000000000000000000000815260040161136d9061364c565b60405180910390fd5b8060056000611383611d3d565b73ffffffffffffffffffffffffffffffffffffffff1673ffffffffffffffffffffffffffffffffffffffff16815260200190815260200160002060008473ffffffffffffffffffffffffffffffffffffffff1673ffffffffffffffffffffffffffffffffffffffff16815260200190815260200160002060006101000a81548160ff0219169083151502179055508173ffffffffffffffffffffffffffffffffffffffff16611430611d3d565b73ffffffffffffffffffffffffffffffffffffffff167f17307eab39ab6107e8899845ad3d59bd9653f200f220920489ca2b5937696c3183604051611475919061358f565b60405180910390a35050565b6201518081565b611499611493611d3d565b83611dfe565b6114d8576040517f08c379a00000000000000000000000000000000000000000000000000000000081526004016114cf906137cc565b60405180910390fd5b6114e4848484846121fe565b50505050565b60606114f582611cd1565b611534576040517f08c379a000000000000000000000000000000000000000000000000000000000815260040161152b9061378c565b60405180910390fd5b600061153e61225a565b9050600081511161155e5760405180602001604052806000815250611589565b8061156884612271565b604051602001611579929190613504565b6040516020818303038152906040525b915050919050565b611599611d3d565b73ffffffffffffffffffffffffffffffffffffffff166115b761123e565b73ffffffffffffffffffffffffffffffffffffffff161461160d576040517f08c379a00000000000000000000000000000000000000000000000000000000081526004016116049061374c565b60405180910390fd5b6040518060c00160405280600060ff168152602001600061ffff16815260200182815260200160088360405161164391906134ed565b90815260200160405180910390206040518060e00160405290816000820160009054906101000a900461ffff1661ffff1661ffff1681526020016000820160029054906101000a900461ffff1661ffff1661ffff1681526020016000820160049054906101000a900461ffff1661ffff1661ffff1681526020016000820160069054906101000a900461ffff1661ffff1661ffff1681526020016000820160089054906101000a900461ffff1661ffff1661ffff16815260200160008201600a9054906101000a900461ffff1661ffff1661ffff1681526020016001820154815250508152602001606460ff168152602001600081525060096000600754815260200190815260200160002060008201518160000160006101000a81548160ff021916908360ff16021790555060208201518160000160016101000a81548161ffff021916908361ffff16021790555060408201518160010190805190602001906117af92919061286f565b5060608201518160020160008201518160000160006101000a81548161ffff021916908361ffff16021790555060208201518160000160026101000a81548161ffff021916908361ffff16021790555060408201518160000160046101000a81548161ffff021916908361ffff16021790555060608201518160000160066101000a81548161ffff021916908361ffff16021790555060808201518160000160086101000a81548161ffff021916908361ffff16021790555060a082015181600001600a6101000a81548161ffff021916908361ffff16021790555060c08201518160010155505060808201518160040160006101000a81548160ff021916908360ff16021790555060a082015181600501559050506118d13360075461241e565b600760008154809291906118e490613b57565b919050555050565b6118f4611d3d565b73ffffffffffffffffffffffffffffffffffffffff1661191261123e565b73ffffffffffffffffffffffffffffffffffffffff1614611968576040517f08c379a000000000000000000000000000000000000000000000000000000000815260040161195f9061374c565b60405180910390fd5b8160006009600083815260200190815260200160002060050154146119c2576040517f08c379a00000000000000000000000000000000000000000000000000000000081526004016119b99061366c565b60405180910390fd5b60008260ff16116119d257600080fd5b60006009600085815260200190815260200160002060040160009054906101000a900460ff1683611a039190613a20565b60ff161015611a805760006009600085815260200190815260200160002060040160006101000a81548160ff021916908360ff160217905550600960008481526020019081526020016000206002016001015442611a61919061392e565b6009600085815260200190815260200160002060050181905550611acb565b816009600085815260200190815260200160002060040160008282829054906101000a900460ff16611ab29190613a20565b92506101000a81548160ff021916908360ff1602179055505b505050565b6000600560008473ffffffffffffffffffffffffffffffffffffffff1673ffffffffffffffffffffffffffffffffffffffff16815260200190815260200160002060008373ffffffffffffffffffffffffffffffffffffffff1673ffffffffffffffffffffffffffffffffffffffff16815260200190815260200160002060009054906101000a900460ff16905092915050565b611b6c611d3d565b73ffffffffffffffffffffffffffffffffffffffff16611b8a61123e565b73ffffffffffffffffffffffffffffffffffffffff1614611be0576040517f08c379a0000000000000000000000000000000000000000000000000000000008152600401611bd79061374c565b60405180910390fd5b600073ffffffffffffffffffffffffffffffffffffffff168173ffffffffffffffffffffffffffffffffffffffff161415611c50576040517f08c379a0000000000000000000000000000000000000000000000000000000008152600401611c47906135ec565b60405180910390fd5b611c5981612138565b50565b61012c81565b600081565b60007f01ffc9a7000000000000000000000000000000000000000000000000000000007bffffffffffffffffffffffffffffffffffffffffffffffffffffffff1916827bffffffffffffffffffffffffffffffffffffffffffffffffffffffff1916149050919050565b60008073ffffffffffffffffffffffffffffffffffffffff166002600084815260200190815260200160002060009054906101000a900473ffffffffffffffffffffffffffffffffffffffff1673ffffffffffffffffffffffffffffffffffffffff1614159050919050565b600033905090565b816004600083815260200190815260200160002060006101000a81548173ffffffffffffffffffffffffffffffffffffffff021916908373ffffffffffffffffffffffffffffffffffffffff160217905550808273ffffffffffffffffffffffffffffffffffffffff16611db883610ed8565b73ffffffffffffffffffffffffffffffffffffffff167f8c5be1e5ebec7d5bd14f71427d1e84f3dd0314c0f7b2291e5b200ac8c7c3b92560405160405180910390a45050565b6000611e0982611cd1565b611e48576040517f08c379a0000000000000000000000000000000000000000000000000000000008152600401611e3f9061368c565b60405180910390fd5b6000611e5383610ed8565b90508073ffffffffffffffffffffffffffffffffffffffff168473ffffffffffffffffffffffffffffffffffffffff161480611ec257508373ffffffffffffffffffffffffffffffffffffffff16611eaa846106c7565b73ffffffffffffffffffffffffffffffffffffffff16145b80611ed35750611ed28185611ad0565b5b91505092915050565b8273ffffffffffffffffffffffffffffffffffffffff16611efc82610ed8565b73ffffffffffffffffffffffffffffffffffffffff1614611f52576040517f08c379a0000000000000000000000000000000000000000000000000000000008152600401611f499061376c565b60405180910390fd5b600073ffffffffffffffffffffffffffffffffffffffff168273ffffffffffffffffffffffffffffffffffffffff161415611fc2576040517f08c379a0000000000000000000000000000000000000000000000000000000008152600401611fb99061362c565b60405180910390fd5b611fcd83838361243c565b611fd8600082611d45565b6001600360008573ffffffffffffffffffffffffffffffffffffffff1673ffffffffffffffffffffffffffffffffffffffff168152602001908152602001600020600082825461202891906139ec565b925050819055506001600360008473ffffffffffffffffffffffffffffffffffffffff1673ffffffffffffffffffffffffffffffffffffffff168152602001908152602001600020600082825461207f919061392e565b92505081905550816002600083815260200190815260200160002060006101000a81548173ffffffffffffffffffffffffffffffffffffffff021916908373ffffffffffffffffffffffffffffffffffffffff160217905550808273ffffffffffffffffffffffffffffffffffffffff168473ffffffffffffffffffffffffffffffffffffffff167fddf252ad1be2c89b69c2b068fc378daa952ba7f163c4a11628f55a4df523b3ef60405160405180910390a4505050565b6000600660009054906101000a900473ffffffffffffffffffffffffffffffffffffffff16905081600660006101000a81548173ffffffffffffffffffffffffffffffffffffffff021916908373ffffffffffffffffffffffffffffffffffffffff1602179055508173ffffffffffffffffffffffffffffffffffffffff168173ffffffffffffffffffffffffffffffffffffffff167f8be0079c531659141344cd1fd0a4f28419497f9722a3daafe3b4186f6b6457e060405160405180910390a35050565b612209848484611edc565b6122158484848461249c565b612254576040517f08c379a000000000000000000000000000000000000000000000000000000000815260040161224b906135cc565b60405180910390fd5b50505050565b606060405180602001604052806000815250905090565b606060008214156122b9576040518060400160405280600181526020017f30000000000000000000000000000000000000000000000000000000000000008152509050612419565b600082905060005b600082146122eb5780806122d490613b57565b915050600a826122e491906139bb565b91506122c1565b60008167ffffffffffffffff81111561232d577f4e487b7100000000000000000000000000000000000000000000000000000000600052604160045260246000fd5b6040519080825280601f01601f19166020018201604052801561235f5781602001600182028036833780820191505090505b5090505b600085146124125760018261237891906139ec565b9150600a856123879190613ba0565b6030612393919061392e565b60f81b8183815181106123cf577f4e487b7100000000000000000000000000000000000000000000000000000000600052603260045260246000fd5b60200101907effffffffffffffffffffffffffffffffffffffffffffffffffffffffffffff1916908160001a905350600a8561240b91906139bb565b9450612363565b8093505050505b919050565b612438828260405180602001604052806000815250612633565b5050565b806000600960008381526020019081526020016000206005015414612496576040517f08c379a000000000000000000000000000000000000000000000000000000000815260040161248d9061366c565b60405180910390fd5b50505050565b60006124bd8473ffffffffffffffffffffffffffffffffffffffff1661268e565b15612626578373ffffffffffffffffffffffffffffffffffffffff1663150b7a026124e6611d3d565b8786866040518563ffffffff1660e01b81526004016125089493929190613543565b602060405180830381600087803b15801561252257600080fd5b505af192505050801561255357506040513d601f19601f820116820180604052508101906125509190612c45565b60015b6125d6573d8060008114612583576040519150601f19603f3d011682016040523d82523d6000602084013e612588565b606091505b506000815114156125ce576040517f08c379a00000000000000000000000000000000000000000000000000000000081526004016125c5906135cc565b60405180910390fd5b805181602001fd5b63150b7a0260e01b7bffffffffffffffffffffffffffffffffffffffffffffffffffffffff1916817bffffffffffffffffffffffffffffffffffffffffffffffffffffffff19161491505061262b565b600190505b949350505050565b61263d83836126a1565b61264a600084848461249c565b612689576040517f08c379a0000000000000000000000000000000000000000000000000000000008152600401612680906135cc565b60405180910390fd5b505050565b600080823b905060008111915050919050565b600073ffffffffffffffffffffffffffffffffffffffff168273ffffffffffffffffffffffffffffffffffffffff161415612711576040517f08c379a00000000000000000000000000000000000000000000000000000000081526004016127089061370c565b60405180910390fd5b61271a81611cd1565b1561275a576040517f08c379a00000000000000000000000000000000000000000000000000000000081526004016127519061360c565b60405180910390fd5b6127666000838361243c565b6001600360008473ffffffffffffffffffffffffffffffffffffffff1673ffffffffffffffffffffffffffffffffffffffff16815260200190815260200160002060008282546127b6919061392e565b92505081905550816002600083815260200190815260200160002060006101000a81548173ffffffffffffffffffffffffffffffffffffffff021916908373ffffffffffffffffffffffffffffffffffffffff160217905550808273ffffffffffffffffffffffffffffffffffffffff16600073ffffffffffffffffffffffffffffffffffffffff167fddf252ad1be2c89b69c2b068fc378daa952ba7f163c4a11628f55a4df523b3ef60405160405180910390a45050565b82805461287b90613b25565b90600052602060002090601f01602090048101928261289d57600085556128e4565b82601f106128b657805160ff19168380011785556128e4565b828001600101855582156128e4579182015b828111156128e35782518255916020019190600101906128c8565b5b5090506128f191906128f5565b5090565b5b8082111561290e5760008160009055506001016128f6565b5090565b600061292561292084613853565b613822565b90508281526020810184848401111561293d57600080fd5b612948848285613ae3565b509392505050565b600061296361295e84613883565b613822565b90508281526020810184848401111561297b57600080fd5b612986848285613ae3565b509392505050565b60008135905061299d81613c9e565b92915050565b6000813590506129b281613cb5565b92915050565b6000813590506129c781613ccc565b92915050565b6000815190506129dc81613ccc565b92915050565b600082601f8301126129f357600080fd5b8135612a03848260208601612912565b91505092915050565b600082601f830112612a1d57600080fd5b8135612a2d848260208601612950565b91505092915050565b600081359050612a4581613ce3565b92915050565b600081359050612a5a81613cfa565b92915050565b600081359050612a6f81613d11565b92915050565b600060208284031215612a8757600080fd5b6000612a958482850161298e565b91505092915050565b60008060408385031215612ab157600080fd5b6000612abf8582860161298e565b9250506020612ad08582860161298e565b9150509250929050565b600080600060608486031215612aef57600080fd5b6000612afd8682870161298e565b9350506020612b0e8682870161298e565b9250506040612b1f86828701612a4b565b9150509250925092565b60008060008060808587031215612b3f57600080fd5b6000612b4d8782880161298e565b9450506020612b5e8782880161298e565b9350506040612b6f87828801612a4b565b925050606085013567ffffffffffffffff811115612b8c57600080fd5b612b98878288016129e2565b91505092959194509250565b60008060408385031215612bb757600080fd5b6000612bc58582860161298e565b9250506020612bd6858286016129a3565b9150509250929050565b60008060408385031215612bf357600080fd5b6000612c018582860161298e565b9250506020612c1285828601612a4b565b9150509250929050565b600060208284031215612c2e57600080fd5b6000612c3c848285016129b8565b91505092915050565b600060208284031215612c5757600080fd5b6000612c65848285016129cd565b91505092915050565b600060208284031215612c8057600080fd5b600082013567ffffffffffffffff811115612c9a57600080fd5b612ca684828501612a0c565b91505092915050565b600080600080600080600060e0888a031215612cca57600080fd5b600088013567ffffffffffffffff811115612ce457600080fd5b612cf08a828b01612a0c565b9750506020612d018a828b01612a60565b9650506040612d128a828b01612a60565b9550506060612d238a828b01612a60565b9450506080612d348a828b01612a60565b93505060a0612d458a828b01612a60565b92505060c0612d568a828b01612a60565b91505092959891949750929550565b600060208284031215612d7757600080fd5b6000612d8584828501612a4b565b91505092915050565b60008060408385031215612da157600080fd5b6000612daf85828601612a4b565b9250506020612dc085828601612a36565b9150509250929050565b60008060408385031215612ddd57600080fd5b6000612deb85828601612a4b565b9250506020612dfc85828601612a60565b9150509250929050565b612e0f81613a54565b82525050565b612e1e81613a66565b82525050565b6000612e2f826138b3565b612e3981856138c9565b9350612e49818560208601613af2565b612e5281613c8d565b840191505092915050565b6000612e68826138be565b612e7281856138da565b9350612e82818560208601613af2565b612e8b81613c8d565b840191505092915050565b6000612ea1826138be565b612eab81856138eb565b9350612ebb818560208601613af2565b80840191505092915050565b6000612ed46032836138da565b91507f4552433732313a207472616e7366657220746f206e6f6e20455243373231526560008301527f63656976657220696d706c656d656e74657200000000000000000000000000006020830152604082019050919050565b6000612f3a6026836138da565b91507f4f776e61626c653a206e6577206f776e657220697320746865207a65726f206160008301527f64647265737300000000000000000000000000000000000000000000000000006020830152604082019050919050565b6000612fa0601c836138da565b91507f4552433732313a20746f6b656e20616c7265616479206d696e746564000000006000830152602082019050919050565b6000612fe06024836138da565b91507f4552433732313a207472616e7366657220746f20746865207a65726f2061646460008301527f72657373000000000000000000000000000000000000000000000000000000006020830152604082019050919050565b60006130466019836138da565b91507f4552433732313a20617070726f766520746f2063616c6c6572000000000000006000830152602082019050919050565b60006130866015836138da565b91507f546869732043727564652069732072657374696e6700000000000000000000006000830152602082019050919050565b60006130c6602c836138da565b91507f4552433732313a206f70657261746f7220717565727920666f72206e6f6e657860008301527f697374656e7420746f6b656e00000000000000000000000000000000000000006020830152604082019050919050565b600061312c6038836138da565b91507f4552433732313a20617070726f76652063616c6c6572206973206e6f74206f7760008301527f6e6572206e6f7220617070726f76656420666f7220616c6c00000000000000006020830152604082019050919050565b6000613192602a836138da565b91507f4552433732313a2062616c616e636520717565727920666f7220746865207a6560008301527f726f2061646472657373000000000000000000000000000000000000000000006020830152604082019050919050565b60006131f86029836138da565b91507f4552433732313a206f776e657220717565727920666f72206e6f6e657869737460008301527f656e7420746f6b656e00000000000000000000000000000000000000000000006020830152604082019050919050565b600061325e6020836138da565b91507f4552433732313a206d696e7420746f20746865207a65726f20616464726573736000830152602082019050919050565b600061329e602c836138da565b91507f4552433732313a20617070726f76656420717565727920666f72206e6f6e657860008301527f697374656e7420746f6b656e00000000000000000000000000000000000000006020830152604082019050919050565b60006133046020836138da565b91507f4f776e61626c653a2063616c6c6572206973206e6f7420746865206f776e65726000830152602082019050919050565b60006133446029836138da565b91507f4552433732313a207472616e73666572206f6620746f6b656e2074686174206960008301527f73206e6f74206f776e00000000000000000000000000000000000000000000006020830152604082019050919050565b60006133aa602f836138da565b91507f4552433732314d657461646174613a2055524920717565727920666f72206e6f60008301527f6e6578697374656e7420746f6b656e00000000000000000000000000000000006020830152604082019050919050565b60006134106021836138da565b91507f4552433732313a20617070726f76616c20746f2063757272656e74206f776e6560008301527f72000000000000000000000000000000000000000000000000000000000000006020830152604082019050919050565b60006134766031836138da565b91507f4552433732313a207472616e736665722063616c6c6572206973206e6f74206f60008301527f776e6572206e6f7220617070726f7665640000000000000000000000000000006020830152604082019050919050565b6134d881613a9e565b82525050565b6134e781613acc565b82525050565b60006134f98284612e96565b915081905092915050565b60006135108285612e96565b915061351c8284612e96565b91508190509392505050565b600060208201905061353d6000830184612e06565b92915050565b60006080820190506135586000830187612e06565b6135656020830186612e06565b61357260408301856134de565b81810360608301526135848184612e24565b905095945050505050565b60006020820190506135a46000830184612e15565b92915050565b600060208201905081810360008301526135c48184612e5d565b905092915050565b600060208201905081810360008301526135e581612ec7565b9050919050565b6000602082019050818103600083015261360581612f2d565b9050919050565b6000602082019050818103600083015261362581612f93565b9050919050565b6000602082019050818103600083015261364581612fd3565b9050919050565b6000602082019050818103600083015261366581613039565b9050919050565b6000602082019050818103600083015261368581613079565b9050919050565b600060208201905081810360008301526136a5816130b9565b9050919050565b600060208201905081810360008301526136c58161311f565b9050919050565b600060208201905081810360008301526136e581613185565b9050919050565b60006020820190508181036000830152613705816131eb565b9050919050565b6000602082019050818103600083015261372581613251565b9050919050565b6000602082019050818103600083015261374581613291565b9050919050565b60006020820190508181036000830152613765816132f7565b9050919050565b6000602082019050818103600083015261378581613337565b9050919050565b600060208201905081810360008301526137a58161339d565b9050919050565b600060208201905081810360008301526137c581613403565b9050919050565b600060208201905081810360008301526137e581613469565b9050919050565b600060208201905061380160008301846134cf565b92915050565b600060208201905061381c60008301846134de565b92915050565b6000604051905081810181811067ffffffffffffffff8211171561384957613848613c5e565b5b8060405250919050565b600067ffffffffffffffff82111561386e5761386d613c5e565b5b601f19601f8301169050602081019050919050565b600067ffffffffffffffff82111561389e5761389d613c5e565b5b601f19601f8301169050602081019050919050565b600081519050919050565b600081519050919050565b600082825260208201905092915050565b600082825260208201905092915050565b600081905092915050565b600061390182613a9e565b915061390c83613a9e565b92508261ffff0382111561392357613922613bd1565b5b828201905092915050565b600061393982613acc565b915061394483613acc565b9250827fffffffffffffffffffffffffffffffffffffffffffffffffffffffffffffffff0382111561397957613978613bd1565b5b828201905092915050565b600061398f82613ad6565b915061399a83613ad6565b92508260ff038211156139b0576139af613bd1565b5b828201905092915050565b60006139c682613acc565b91506139d183613acc565b9250826139e1576139e0613c00565b5b828204905092915050565b60006139f782613acc565b9150613a0283613acc565b925082821015613a1557613a14613bd1565b5b828203905092915050565b6000613a2b82613ad6565b9150613a3683613ad6565b925082821015613a4957613a48613bd1565b5b828203905092915050565b6000613a5f82613aac565b9050919050565b60008115159050919050565b60007fffffffff0000000000000000000000000000000000000000000000000000000082169050919050565b600061ffff82169050919050565b600073ffffffffffffffffffffffffffffffffffffffff82169050919050565b6000819050919050565b600060ff82169050919050565b82818337600083830152505050565b60005b83811015613b10578082015181840152602081019050613af5565b83811115613b1f576000848401525b50505050565b60006002820490506001821680613b3d57607f821691505b60208210811415613b5157613b50613c2f565b5b50919050565b6000613b6282613acc565b91507fffffffffffffffffffffffffffffffffffffffffffffffffffffffffffffffff821415613b9557613b94613bd1565b5b600182019050919050565b6000613bab82613acc565b9150613bb683613acc565b925082613bc657613bc5613c00565b5b828206905092915050565b7f4e487b7100000000000000000000000000000000000000000000000000000000600052601160045260246000fd5b7f4e487b7100000000000000000000000000000000000000000000000000000000600052601260045260246000fd5b7f4e487b7100000000000000000000000000000000000000000000000000000000600052602260045260246000fd5b7f4e487b7100000000000000000000000000000000000000000000000000000000600052604160045260246000fd5b6000601f19601f8301169050919050565b613ca781613a54565b8114613cb257600080fd5b50565b613cbe81613a66565b8114613cc957600080fd5b50565b613cd581613a72565b8114613ce057600080fd5b50565b613cec81613a9e565b8114613cf757600080fd5b50565b613d0381613acc565b8114613d0e57600080fd5b50565b613d1a81613ad6565b8114613d2557600080fd5b5056fea264697066735822122010637475e7c9da4c8ad94c6b954ab428c94a00240ae24a18b9b8bf02ece975c864736f6c63430008000033",
  "immutableReferences": {},
  "source": "pragma solidity 0.8.0;\r\n\r\nimport '../node_modules/@openzeppelin/contracts/token/ERC721/ERC721.sol';\r\n\r\nimport '../node_modules/@openzeppelin/contracts/access/Ownable.sol';\r\n\r\ncontract Gen0Token is ERC721 , Ownable {\r\n\r\n  uint256 nextCrudeId = 0;\r\n\r\n  uint16 public constant LVL_1_XP = 0;\r\n  uint16 public constant LVL_2_XP = 300;\r\n  uint16 public constant LVL_3_XP = 750;\r\n  uint16 public constant LVL_4_XP = 1500;\r\n  uint16 public constant LVL_5_XP = 3000;\r\n\r\n  uint16 public constant MAX_ENERGY = 100;\r\n  uint256 public constant BASE_RESTING_TIME = 24 hours;\r\n\r\n  struct CrudeStats {\r\n    uint16 hp; // Health Points\r\n    uint16 str; // Strength Power\r\n    uint16 mp; // Magical Power\r\n    uint16 ag; // Agility Points \r\n    uint16 pDef; // Phisical Defense\r\n    uint16 mDef; // Magical defense\r\n    uint256 restingTime; // Time to rest\r\n  }\r\n\r\n  struct Crude {\r\n    uint8 level; // 0 - 10 || 0 == kid\r\n    uint16 xp; // XP Points: 0 -> LVL_N_XP \r\n    string tribe;\r\n    CrudeStats stats;\r\n    uint8 energy; // 0 - 100 - 0 cannot be traded and cannot play\r\n    uint256 restingEndTimestamp; // Timestamp when Crude is recovered. if != 0 cannot be traded and cannot play\r\n  }\r\n\r\n  mapping(string => CrudeStats) private _CrudeStats;\r\n  mapping(uint256 => Crude) private _tokenDetails;\r\n  constructor(string memory name, string memory symbol) ERC721(name, symbol) {}\r\n\r\n  modifier isRested(uint256 tokenId){\r\n    require(_tokenDetails[tokenId].restingEndTimestamp == 0,'This Crude is resting');\r\n    _;\r\n  }\r\n\r\n  function addTribe(string memory _name, uint8 hp, uint8 str, uint8 zp, uint8 ag, uint8 pDef, uint8 mDef) public onlyOwner {\r\n    require(_CrudeStats[_name].hp == 0); // Check that tribe is not present (hp can't be 0)\r\n    _CrudeStats[_name] = CrudeStats(hp, str, zp, ag, pDef, mDef, BASE_RESTING_TIME);\r\n  }\r\n\r\n  function mint(\r\n    string memory _tribe\r\n  ) public onlyOwner {\r\n    _tokenDetails[nextCrudeId] = Crude(0, 0, _tribe, _CrudeStats[_tribe], 100, 0);\r\n    _safeMint(msg.sender, nextCrudeId);\r\n    nextCrudeId++;\r\n  }\r\n\r\n  function _beforeTokenTransfer(\r\n    address from,\r\n    address to,\r\n    uint256 tokenId\r\n  ) internal override isRested(tokenId){}\r\n\r\n  // [CHARACTER MANAGEMENT]\r\n\r\n  // XP Management\r\n  function addXP(\r\n    uint256 tokenId,\r\n    uint16 xpPoints\r\n  ) public onlyOwner {\r\n    require(xpPoints > 0); \r\n    require(_tokenDetails[tokenId].stats.hp != 0);\r\n    require(_tokenDetails[tokenId].xp + xpPoints <= LVL_5_XP); \r\n\r\n    _tokenDetails[tokenId].xp += xpPoints;\r\n    if (_tokenDetails[tokenId].xp > LVL_2_XP && _tokenDetails[tokenId].level < 2){\r\n      _tokenDetails[tokenId].level = 2;\r\n    }\r\n    if (_tokenDetails[tokenId].xp > LVL_3_XP && _tokenDetails[tokenId].level < 3){\r\n      _tokenDetails[tokenId].level = 3;\r\n    }\r\n    if (_tokenDetails[tokenId].xp > LVL_4_XP && _tokenDetails[tokenId].level < 4){\r\n      _tokenDetails[tokenId].level = 4;\r\n    }\r\n    if (_tokenDetails[tokenId].xp == LVL_5_XP && _tokenDetails[tokenId].level < 5){\r\n      _tokenDetails[tokenId].level = 5;\r\n    }\r\n  }\r\n  \r\n  // Energy Management\r\n  function feed(\r\n    uint256 tokenId,\r\n    uint8 energyToRestore\r\n  ) public onlyOwner isRested(tokenId) {\r\n    require(energyToRestore > 0);\r\n    require(_tokenDetails[tokenId].energy + energyToRestore <= 100);\r\n    _tokenDetails[tokenId].energy += energyToRestore;\r\n  }\r\n\r\n  function exhaust(\r\n    uint256 tokenId,\r\n    uint8 energyToLose\r\n  ) public onlyOwner isRested(tokenId) {\r\n     require(energyToLose > 0);\r\n     if (energyToLose - _tokenDetails[tokenId].energy < 0){\r\n       _tokenDetails[tokenId].energy = 0;\r\n       _tokenDetails[tokenId].restingEndTimestamp = block.timestamp + _tokenDetails[tokenId].stats.restingTime;\r\n     } else {\r\n       _tokenDetails[tokenId].energy -= energyToLose;\r\n     }\r\n  }\r\n}\r\n\r\n",
  "sourcePath": "C:\\Users\\alexl\\git\\_PERSONAL\\simple-nft-game\\contracts\\Gen0Token.sol",
  "compiler": {
    "name": "solc",
    "version": "0.8.0+commit.c7dfd78e.Emscripten.clang"
  },
  "schemaVersion": "3.4.3",
  "updatedAt": "2021-09-02T11:35:17.598Z",
  "devdoc": {
    "kind": "dev",
    "methods": {
      "approve(address,uint256)": {
        "details": "See {IERC721-approve}."
      },
      "balanceOf(address)": {
        "details": "See {IERC721-balanceOf}."
      },
      "getApproved(uint256)": {
        "details": "See {IERC721-getApproved}."
      },
      "isApprovedForAll(address,address)": {
        "details": "See {IERC721-isApprovedForAll}."
      },
      "name()": {
        "details": "See {IERC721Metadata-name}."
      },
      "owner()": {
        "details": "Returns the address of the current owner."
      },
      "ownerOf(uint256)": {
        "details": "See {IERC721-ownerOf}."
      },
      "renounceOwnership()": {
        "details": "Leaves the contract without owner. It will not be possible to call `onlyOwner` functions anymore. Can only be called by the current owner. NOTE: Renouncing ownership will leave the contract without an owner, thereby removing any functionality that is only available to the owner."
      },
      "safeTransferFrom(address,address,uint256)": {
        "details": "See {IERC721-safeTransferFrom}."
      },
      "safeTransferFrom(address,address,uint256,bytes)": {
        "details": "See {IERC721-safeTransferFrom}."
      },
      "setApprovalForAll(address,bool)": {
        "details": "See {IERC721-setApprovalForAll}."
      },
      "supportsInterface(bytes4)": {
        "details": "See {IERC165-supportsInterface}."
      },
      "symbol()": {
        "details": "See {IERC721Metadata-symbol}."
      },
      "tokenURI(uint256)": {
        "details": "See {IERC721Metadata-tokenURI}."
      },
      "transferFrom(address,address,uint256)": {
        "details": "See {IERC721-transferFrom}."
      },
      "transferOwnership(address)": {
        "details": "Transfers ownership of the contract to a new account (`newOwner`). Can only be called by the current owner."
      }
    },
    "version": 1
  },
  "userdoc": {
    "kind": "user",
    "methods": {},
    "version": 1
  }
}